{
  "contractName": "BIVE",
  "abi": [
    {
      "inputs": [
        {
          "internalType": "uint256",
          "name": "initialSupply",
          "type": "uint256"
        }
      ],
      "stateMutability": "nonpayable",
      "type": "constructor"
    },
    {
      "anonymous": false,
      "inputs": [
        {
          "indexed": true,
          "internalType": "address",
          "name": "account",
          "type": "address"
        }
      ],
      "name": "AddToBlacklist",
      "type": "event"
    },
    {
      "anonymous": false,
      "inputs": [
        {
          "indexed": true,
          "internalType": "address",
          "name": "owner",
          "type": "address"
        },
        {
          "indexed": true,
          "internalType": "address",
          "name": "spender",
          "type": "address"
        },
        {
          "indexed": false,
          "internalType": "uint256",
          "name": "value",
          "type": "uint256"
        }
      ],
      "name": "Approval",
      "type": "event"
    },
    {
      "anonymous": false,
      "inputs": [
        {
          "indexed": true,
          "internalType": "address",
          "name": "previousOwner",
          "type": "address"
        },
        {
          "indexed": true,
          "internalType": "address",
          "name": "newOwner",
          "type": "address"
        }
      ],
      "name": "OwnershipTransferred",
      "type": "event"
    },
    {
      "anonymous": false,
      "inputs": [
        {
          "indexed": false,
          "internalType": "address",
          "name": "account",
          "type": "address"
        }
      ],
      "name": "Paused",
      "type": "event"
    },
    {
      "anonymous": false,
      "inputs": [
        {
          "indexed": true,
          "internalType": "address",
          "name": "account",
          "type": "address"
        }
      ],
      "name": "RemoveFromBlacklist",
      "type": "event"
    },
    {
      "anonymous": false,
      "inputs": [
        {
          "indexed": true,
          "internalType": "address",
          "name": "from",
          "type": "address"
        },
        {
          "indexed": true,
          "internalType": "address",
          "name": "to",
          "type": "address"
        },
        {
          "indexed": false,
          "internalType": "uint256",
          "name": "value",
          "type": "uint256"
        }
      ],
      "name": "Transfer",
      "type": "event"
    },
    {
      "anonymous": false,
      "inputs": [
        {
          "indexed": false,
          "internalType": "address",
          "name": "account",
          "type": "address"
        }
      ],
      "name": "Unpaused",
      "type": "event"
    },
    {
      "inputs": [
        {
          "internalType": "address",
          "name": "account",
          "type": "address"
        }
      ],
      "name": "addToBlacklist",
      "outputs": [
        {
          "internalType": "bool",
          "name": "",
          "type": "bool"
        }
      ],
      "stateMutability": "nonpayable",
      "type": "function"
    },
    {
      "inputs": [
        {
          "internalType": "address",
          "name": "owner",
          "type": "address"
        },
        {
          "internalType": "address",
          "name": "spender",
          "type": "address"
        }
      ],
      "name": "allowance",
      "outputs": [
        {
          "internalType": "uint256",
          "name": "",
          "type": "uint256"
        }
      ],
      "stateMutability": "view",
      "type": "function",
      "constant": true
    },
    {
      "inputs": [
        {
          "internalType": "address",
          "name": "spender",
          "type": "address"
        },
        {
          "internalType": "uint256",
          "name": "amount",
          "type": "uint256"
        }
      ],
      "name": "approve",
      "outputs": [
        {
          "internalType": "bool",
          "name": "",
          "type": "bool"
        }
      ],
      "stateMutability": "nonpayable",
      "type": "function"
    },
    {
      "inputs": [
        {
          "internalType": "address",
          "name": "account",
          "type": "address"
        }
      ],
      "name": "balanceOf",
      "outputs": [
        {
          "internalType": "uint256",
          "name": "",
          "type": "uint256"
        }
      ],
      "stateMutability": "view",
      "type": "function",
      "constant": true
    },
    {
      "inputs": [
        {
          "internalType": "address",
          "name": "account",
          "type": "address"
        }
      ],
      "name": "burnDead",
      "outputs": [
        {
          "internalType": "bool",
          "name": "",
          "type": "bool"
        }
      ],
      "stateMutability": "nonpayable",
      "type": "function"
    },
    {
      "inputs": [
        {
          "internalType": "address",
          "name": "spender",
          "type": "address"
        },
        {
          "internalType": "uint256",
          "name": "subtractedValue",
          "type": "uint256"
        }
      ],
      "name": "decreaseAllowance",
      "outputs": [
        {
          "internalType": "bool",
          "name": "",
          "type": "bool"
        }
      ],
      "stateMutability": "nonpayable",
      "type": "function"
    },
    {
      "inputs": [
        {
          "internalType": "address",
          "name": "spender",
          "type": "address"
        },
        {
          "internalType": "uint256",
          "name": "addedValue",
          "type": "uint256"
        }
      ],
      "name": "increaseAllowance",
      "outputs": [
        {
          "internalType": "bool",
          "name": "",
          "type": "bool"
        }
      ],
      "stateMutability": "nonpayable",
      "type": "function"
    },
    {
      "inputs": [
        {
          "internalType": "address",
          "name": "account",
          "type": "address"
        }
      ],
      "name": "isBlacklist",
      "outputs": [
        {
          "internalType": "bool",
          "name": "",
          "type": "bool"
        }
      ],
      "stateMutability": "view",
      "type": "function",
      "constant": true
    },
    {
      "inputs": [],
      "name": "name",
      "outputs": [
        {
          "internalType": "string",
          "name": "",
          "type": "string"
        }
      ],
      "stateMutability": "view",
      "type": "function",
      "constant": true
    },
    {
      "inputs": [],
      "name": "owner",
      "outputs": [
        {
          "internalType": "address",
          "name": "",
          "type": "address"
        }
      ],
      "stateMutability": "view",
      "type": "function",
      "constant": true
    },
    {
      "inputs": [],
      "name": "pause",
      "outputs": [
        {
          "internalType": "bool",
          "name": "",
          "type": "bool"
        }
      ],
      "stateMutability": "nonpayable",
      "type": "function"
    },
    {
      "inputs": [],
      "name": "paused",
      "outputs": [
        {
          "internalType": "bool",
          "name": "",
          "type": "bool"
        }
      ],
      "stateMutability": "view",
      "type": "function",
      "constant": true
    },
    {
      "inputs": [
        {
          "internalType": "address",
          "name": "account",
          "type": "address"
        }
      ],
      "name": "removeFromBlacklist",
      "outputs": [
        {
          "internalType": "bool",
          "name": "",
          "type": "bool"
        }
      ],
      "stateMutability": "nonpayable",
      "type": "function"
    },
    {
      "inputs": [],
      "name": "renounceOwnership",
      "outputs": [],
      "stateMutability": "nonpayable",
      "type": "function"
    },
    {
      "inputs": [],
      "name": "symbol",
      "outputs": [
        {
          "internalType": "string",
          "name": "",
          "type": "string"
        }
      ],
      "stateMutability": "view",
      "type": "function",
      "constant": true
    },
    {
      "inputs": [],
      "name": "totalSupply",
      "outputs": [
        {
          "internalType": "uint256",
          "name": "",
          "type": "uint256"
        }
      ],
      "stateMutability": "view",
      "type": "function",
      "constant": true
    },
    {
      "inputs": [
        {
          "internalType": "address",
          "name": "recipient",
          "type": "address"
        },
        {
          "internalType": "uint256",
          "name": "amount",
          "type": "uint256"
        }
      ],
      "name": "transfer",
      "outputs": [
        {
          "internalType": "bool",
          "name": "",
          "type": "bool"
        }
      ],
      "stateMutability": "nonpayable",
      "type": "function"
    },
    {
      "inputs": [
        {
          "internalType": "address",
          "name": "sender",
          "type": "address"
        },
        {
          "internalType": "address",
          "name": "recipient",
          "type": "address"
        },
        {
          "internalType": "uint256",
          "name": "amount",
          "type": "uint256"
        }
      ],
      "name": "transferFrom",
      "outputs": [
        {
          "internalType": "bool",
          "name": "",
          "type": "bool"
        }
      ],
      "stateMutability": "nonpayable",
      "type": "function"
    },
    {
      "inputs": [
        {
          "internalType": "address",
          "name": "newOwner",
          "type": "address"
        }
      ],
      "name": "transferOwnership",
      "outputs": [],
      "stateMutability": "nonpayable",
      "type": "function"
    },
    {
      "inputs": [],
      "name": "unpause",
      "outputs": [
        {
          "internalType": "bool",
          "name": "",
          "type": "bool"
        }
      ],
      "stateMutability": "nonpayable",
      "type": "function"
    },
    {
      "inputs": [],
      "name": "decimals",
      "outputs": [
        {
          "internalType": "uint8",
          "name": "",
          "type": "uint8"
        }
      ],
      "stateMutability": "pure",
      "type": "function",
      "constant": true
    },
    {
      "inputs": [
        {
          "internalType": "address",
          "name": "to",
          "type": "address"
        },
        {
          "internalType": "uint256",
          "name": "amount",
          "type": "uint256"
        }
      ],
      "name": "mint",
      "outputs": [
        {
          "internalType": "bool",
          "name": "",
          "type": "bool"
        }
      ],
      "stateMutability": "nonpayable",
      "type": "function"
    }
  ],
  "bytecode": "0x60806040523480156200001157600080fd5b50604051620034e8380380620034e88339818101604052810190620000379190620006c8565b6040518060400160405280600881526020017f42495a56455253450000000000000000000000000000000000000000000000008152506040518060400160405280600481526020017f424956450000000000000000000000000000000000000000000000000000000081525081818160049080519060200190620000bd92919062000601565b508060059080519060200190620000d692919062000601565b5050506000600660006101000a81548160ff02191690831515021790555062000114620001086200013e60201b60201c565b6200014660201b60201c565b5050620001376200012a6200013e60201b60201c565b826200020c60201b60201c565b5062000ad4565b600033905090565b6000600660019054906101000a900473ffffffffffffffffffffffffffffffffffffffff16905081600660016101000a81548173ffffffffffffffffffffffffffffffffffffffff021916908373ffffffffffffffffffffffffffffffffffffffff1602179055508173ffffffffffffffffffffffffffffffffffffffff168173ffffffffffffffffffffffffffffffffffffffff167f8be0079c531659141344cd1fd0a4f28419497f9722a3daafe3b4186f6b6457e060405160405180910390a35050565b600073ffffffffffffffffffffffffffffffffffffffff168273ffffffffffffffffffffffffffffffffffffffff1614156200027f576040517f08c379a000000000000000000000000000000000000000000000000000000000815260040162000276906200094d565b60405180910390fd5b62000293600083836200038660201b60201c565b8060036000828254620002a79190620009bf565b9250508190555080600160008473ffffffffffffffffffffffffffffffffffffffff1673ffffffffffffffffffffffffffffffffffffffff1681526020019081526020016000206000828254620002ff9190620009bf565b925050819055508173ffffffffffffffffffffffffffffffffffffffff16600073ffffffffffffffffffffffffffffffffffffffff167fddf252ad1be2c89b69c2b068fc378daa952ba7f163c4a11628f55a4df523b3ef8360405162000366919062000991565b60405180910390a36200038260008383620003a360201b60201c565b5050565b6200039e838383620003a860201b62000f351760201c565b505050565b505050565b620003c08383836200052060201b6200106d1760201c565b620003d1836200059060201b60201c565b80156200040a5750600073ffffffffffffffffffffffffffffffffffffffff168273ffffffffffffffffffffffffffffffffffffffff16145b6200051b5762000420836200059060201b60201c565b1562000463576040517f08c379a00000000000000000000000000000000000000000000000000000000081526004016200045a906200092b565b60405180910390fd5b62000474826200059060201b60201c565b15620004b7576040517f08c379a0000000000000000000000000000000000000000000000000000000008152600401620004ae90620008e7565b60405180910390fd5b620004d7620004cb6200013e60201b60201c565b6200059060201b60201c565b156200051a576040517f08c379a0000000000000000000000000000000000000000000000000000000008152600401620005119062000909565b60405180910390fd5b5b505050565b62000538838383620005e560201b620010c51760201c565b62000548620005ea60201b60201c565b156200058b576040517f08c379a000000000000000000000000000000000000000000000000000000000815260040162000582906200096f565b60405180910390fd5b505050565b60008060008373ffffffffffffffffffffffffffffffffffffffff1673ffffffffffffffffffffffffffffffffffffffff16815260200190815260200160002060009054906101000a900460ff169050919050565b505050565b6000600660009054906101000a900460ff16905090565b8280546200060f9062000a26565b90600052602060002090601f0160209004810192826200063357600085556200067f565b82601f106200064e57805160ff19168380011785556200067f565b828001600101855582156200067f579182015b828111156200067e57825182559160200191906001019062000661565b5b5090506200068e919062000692565b5090565b5b80821115620006ad57600081600090555060010162000693565b5090565b600081519050620006c28162000aba565b92915050565b600060208284031215620006db57600080fd5b6000620006eb84828501620006b1565b91505092915050565b600062000703602983620009ae565b91507f4552433230426c61636b6c69737461626c653a20526563697069656e7420626c60008301527f61636b6c697374656400000000000000000000000000000000000000000000006020830152604082019050919050565b60006200076b602683620009ae565b91507f4552433230426c61636b6c69737461626c653a2043616c6c657220626c61636b60008301527f6c697374656400000000000000000000000000000000000000000000000000006020830152604082019050919050565b6000620007d3602683620009ae565b91507f4552433230426c61636b6c69737461626c653a2053656e64657220626c61636b60008301527f6c697374656400000000000000000000000000000000000000000000000000006020830152604082019050919050565b60006200083b601f83620009ae565b91507f45524332303a206d696e7420746f20746865207a65726f2061646472657373006000830152602082019050919050565b60006200087d602a83620009ae565b91507f45524332305061757361626c653a20746f6b656e207472616e7366657220776860008301527f696c6520706175736564000000000000000000000000000000000000000000006020830152604082019050919050565b620008e18162000a1c565b82525050565b600060208201905081810360008301526200090281620006f4565b9050919050565b6000602082019050818103600083015262000924816200075c565b9050919050565b600060208201905081810360008301526200094681620007c4565b9050919050565b6000602082019050818103600083015262000968816200082c565b9050919050565b600060208201905081810360008301526200098a816200086e565b9050919050565b6000602082019050620009a86000830184620008d6565b92915050565b600082825260208201905092915050565b6000620009cc8262000a1c565b9150620009d98362000a1c565b9250827fffffffffffffffffffffffffffffffffffffffffffffffffffffffffffffffff0382111562000a115762000a1062000a5c565b5b828201905092915050565b6000819050919050565b6000600282049050600182168062000a3f57607f821691505b6020821081141562000a565762000a5562000a8b565b5b50919050565b7f4e487b7100000000000000000000000000000000000000000000000000000000600052601160045260246000fd5b7f4e487b7100000000000000000000000000000000000000000000000000000000600052602260045260246000fd5b62000ac58162000a1c565b811462000ad157600080fd5b50565b612a048062000ae46000396000f3fe608060405234801561001057600080fd5b50600436106101425760003560e01c80635c975abb116100b857806395d89b411161007c57806395d89b41146103a3578063a457c2d7146103c1578063a504b588146103f1578063a9059cbb14610421578063dd62ed3e14610451578063f2fde38b1461048157610142565b80635c975abb1461030f57806370a082311461032d578063715018a61461035d5780638456cb59146103675780638da5cb5b1461038557610142565b8063333e99db1161010a578063333e99db1461020157806339509351146102315780633f4ba83a1461026157806340c10f191461027f57806344337ea1146102af578063537df3b6146102df57610142565b806306fdde0314610147578063095ea7b31461016557806318160ddd1461019557806323b872dd146101b3578063313ce567146101e3575b600080fd5b61014f61049d565b60405161015c91906124d9565b60405180910390f35b61017f600480360381019061017a9190611c2c565b61052f565b60405161018c91906124be565b60405180910390f35b61019d61054d565b6040516101aa919061279b565b60405180910390f35b6101cd60048036038101906101c89190611bdd565b610557565b6040516101da91906124be565b60405180910390f35b6101eb61064f565b6040516101f891906127b6565b60405180910390f35b61021b60048036038101906102169190611b78565b610658565b60405161022891906124be565b60405180910390f35b61024b60048036038101906102469190611c2c565b6106ad565b60405161025891906124be565b60405180910390f35b610269610759565b60405161027691906124be565b60405180910390f35b61029960048036038101906102949190611c2c565b6107e6565b6040516102a691906124be565b60405180910390f35b6102c960048036038101906102c49190611b78565b610823565b6040516102d691906124be565b60405180910390f35b6102f960048036038101906102f49190611b78565b6108b5565b60405161030691906124be565b60405180910390f35b610317610947565b60405161032491906124be565b60405180910390f35b61034760048036038101906103429190611b78565b61095e565b604051610354919061279b565b60405180910390f35b6103656109a7565b005b61036f610a2f565b60405161037c91906124be565b60405180910390f35b61038d610abc565b60405161039a91906124a3565b60405180910390f35b6103ab610ae6565b6040516103b891906124d9565b60405180910390f35b6103db60048036038101906103d69190611c2c565b610b78565b6040516103e891906124be565b60405180910390f35b61040b60048036038101906104069190611b78565b610c63565b60405161041891906124be565b60405180910390f35b61043b60048036038101906104369190611c2c565b610d98565b60405161044891906124be565b60405180910390f35b61046b60048036038101906104669190611ba1565b610db6565b604051610478919061279b565b60405180910390f35b61049b60048036038101906104969190611b78565b610e3d565b005b6060600480546104ac906128ff565b80601f01602080910402602001604051908101604052809291908181526020018280546104d8906128ff565b80156105255780601f106104fa57610100808354040283529160200191610525565b820191906000526020600020905b81548152906001019060200180831161050857829003601f168201915b5050505050905090565b600061054361053c6110ca565b84846110d2565b6001905092915050565b6000600354905090565b60006105648484846110e2565b6000600260008673ffffffffffffffffffffffffffffffffffffffff1673ffffffffffffffffffffffffffffffffffffffff16815260200190815260200160002060006105af6110ca565b73ffffffffffffffffffffffffffffffffffffffff1673ffffffffffffffffffffffffffffffffffffffff1681526020019081526020016000205490508281101561062f576040517f08c379a0000000000000000000000000000000000000000000000000000000008152600401610626906125fb565b60405180910390fd5b6106438561063b6110ca565b8584036110d2565b60019150509392505050565b60006004905090565b60008060008373ffffffffffffffffffffffffffffffffffffffff1673ffffffffffffffffffffffffffffffffffffffff16815260200190815260200160002060009054906101000a900460ff169050919050565b600061074f6106ba6110ca565b8484600260006106c86110ca565b73ffffffffffffffffffffffffffffffffffffffff1673ffffffffffffffffffffffffffffffffffffffff16815260200190815260200160002060008873ffffffffffffffffffffffffffffffffffffffff1673ffffffffffffffffffffffffffffffffffffffff1681526020019081526020016000205461074a91906127ed565b6110d2565b6001905092915050565b60006107636110ca565b73ffffffffffffffffffffffffffffffffffffffff16610781610abc565b73ffffffffffffffffffffffffffffffffffffffff16146107d7576040517f08c379a00000000000000000000000000000000000000000000000000000000081526004016107ce9061263b565b60405180910390fd5b6107df611366565b6001905090565b60006040517f08c379a000000000000000000000000000000000000000000000000000000000815260040161081a9061271b565b60405180910390fd5b600061082d6110ca565b73ffffffffffffffffffffffffffffffffffffffff1661084b610abc565b73ffffffffffffffffffffffffffffffffffffffff16146108a1576040517f08c379a00000000000000000000000000000000000000000000000000000000081526004016108989061263b565b60405180910390fd5b6108ac826001611408565b60019050919050565b60006108bf6110ca565b73ffffffffffffffffffffffffffffffffffffffff166108dd610abc565b73ffffffffffffffffffffffffffffffffffffffff1614610933576040517f08c379a000000000000000000000000000000000000000000000000000000000815260040161092a9061263b565b60405180910390fd5b61093e826000611408565b60019050919050565b6000600660009054906101000a900460ff16905090565b6000600160008373ffffffffffffffffffffffffffffffffffffffff1673ffffffffffffffffffffffffffffffffffffffff168152602001908152602001600020549050919050565b6109af6110ca565b73ffffffffffffffffffffffffffffffffffffffff166109cd610abc565b73ffffffffffffffffffffffffffffffffffffffff1614610a23576040517f08c379a0000000000000000000000000000000000000000000000000000000008152600401610a1a9061263b565b60405180910390fd5b610a2d600061158a565b565b6000610a396110ca565b73ffffffffffffffffffffffffffffffffffffffff16610a57610abc565b73ffffffffffffffffffffffffffffffffffffffff1614610aad576040517f08c379a0000000000000000000000000000000000000000000000000000000008152600401610aa49061263b565b60405180910390fd5b610ab5611650565b6001905090565b6000600660019054906101000a900473ffffffffffffffffffffffffffffffffffffffff16905090565b606060058054610af5906128ff565b80601f0160208091040260200160405190810160405280929190818152602001828054610b21906128ff565b8015610b6e5780601f10610b4357610100808354040283529160200191610b6e565b820191906000526020600020905b815481529060010190602001808311610b5157829003601f168201915b5050505050905090565b60008060026000610b876110ca565b73ffffffffffffffffffffffffffffffffffffffff1673ffffffffffffffffffffffffffffffffffffffff16815260200190815260200160002060008573ffffffffffffffffffffffffffffffffffffffff1673ffffffffffffffffffffffffffffffffffffffff16815260200190815260200160002054905082811015610c44576040517f08c379a0000000000000000000000000000000000000000000000000000000008152600401610c3b9061275b565b60405180910390fd5b610c58610c4f6110ca565b858584036110d2565b600191505092915050565b6000610c6d6110ca565b73ffffffffffffffffffffffffffffffffffffffff16610c8b610abc565b73ffffffffffffffffffffffffffffffffffffffff1614610ce1576040517f08c379a0000000000000000000000000000000000000000000000000000000008152600401610cd89061263b565b60405180910390fd5b8160018015156000808473ffffffffffffffffffffffffffffffffffffffff1673ffffffffffffffffffffffffffffffffffffffff16815260200190815260200160002060009054906101000a900460ff16151514610d75576040517f08c379a0000000000000000000000000000000000000000000000000000000008152600401610d6c9061273b565b60405180910390fd5b6000610d808561095e565b9050610d8c85826116f3565b60019350505050919050565b6000610dac610da56110ca565b84846110e2565b6001905092915050565b6000600260008473ffffffffffffffffffffffffffffffffffffffff1673ffffffffffffffffffffffffffffffffffffffff16815260200190815260200160002060008373ffffffffffffffffffffffffffffffffffffffff1673ffffffffffffffffffffffffffffffffffffffff16815260200190815260200160002054905092915050565b610e456110ca565b73ffffffffffffffffffffffffffffffffffffffff16610e63610abc565b73ffffffffffffffffffffffffffffffffffffffff1614610eb9576040517f08c379a0000000000000000000000000000000000000000000000000000000008152600401610eb09061263b565b60405180910390fd5b600073ffffffffffffffffffffffffffffffffffffffff168173ffffffffffffffffffffffffffffffffffffffff161415610f29576040517f08c379a0000000000000000000000000000000000000000000000000000000008152600401610f209061255b565b60405180910390fd5b610f328161158a565b50565b610f4083838361106d565b610f4983610658565b8015610f815750600073ffffffffffffffffffffffffffffffffffffffff168273ffffffffffffffffffffffffffffffffffffffff16145b61106857610f8e83610658565b15610fce576040517f08c379a0000000000000000000000000000000000000000000000000000000008152600401610fc5906126db565b60405180910390fd5b610fd782610658565b15611017576040517f08c379a000000000000000000000000000000000000000000000000000000000815260040161100e9061261b565b60405180910390fd5b6110276110226110ca565b610658565b15611067576040517f08c379a000000000000000000000000000000000000000000000000000000000815260040161105e9061265b565b60405180910390fd5b5b505050565b6110788383836110c5565b611080610947565b156110c0576040517f08c379a00000000000000000000000000000000000000000000000000000000081526004016110b79061277b565b60405180910390fd5b505050565b505050565b600033905090565b6110dd8383836118cc565b505050565b600073ffffffffffffffffffffffffffffffffffffffff168373ffffffffffffffffffffffffffffffffffffffff161415611152576040517f08c379a0000000000000000000000000000000000000000000000000000000008152600401611149906126bb565b60405180910390fd5b600073ffffffffffffffffffffffffffffffffffffffff168273ffffffffffffffffffffffffffffffffffffffff1614156111c2576040517f08c379a00000000000000000000000000000000000000000000000000000000081526004016111b9906124fb565b60405180910390fd5b6111cd83838361196e565b6000600160008573ffffffffffffffffffffffffffffffffffffffff1673ffffffffffffffffffffffffffffffffffffffff16815260200190815260200160002054905081811015611254576040517f08c379a000000000000000000000000000000000000000000000000000000000815260040161124b906125bb565b60405180910390fd5b818103600160008673ffffffffffffffffffffffffffffffffffffffff1673ffffffffffffffffffffffffffffffffffffffff1681526020019081526020016000208190555081600160008573ffffffffffffffffffffffffffffffffffffffff1673ffffffffffffffffffffffffffffffffffffffff16815260200190815260200160002060008282546112e991906127ed565b925050819055508273ffffffffffffffffffffffffffffffffffffffff168473ffffffffffffffffffffffffffffffffffffffff167fddf252ad1be2c89b69c2b068fc378daa952ba7f163c4a11628f55a4df523b3ef8460405161134d919061279b565b60405180910390a361136084848461197e565b50505050565b61136e610947565b6113ad576040517f08c379a00000000000000000000000000000000000000000000000000000000081526004016113a49061251b565b60405180910390fd5b6000600660006101000a81548160ff0219169083151502179055507f5db9ee0a495bf2e6ff9c91a7834c1ba4fdd244a5e8aa4e537bd38aeae4b073aa6113f16110ca565b6040516113fe91906124a3565b60405180910390a1565b8181158015156000808473ffffffffffffffffffffffffffffffffffffffff1673ffffffffffffffffffffffffffffffffffffffff16815260200190815260200160002060009054906101000a900460ff1615151461149c576040517f08c379a00000000000000000000000000000000000000000000000000000000081526004016114939061273b565b60405180910390fd5b826000808673ffffffffffffffffffffffffffffffffffffffff1673ffffffffffffffffffffffffffffffffffffffff16815260200190815260200160002060006101000a81548160ff0219169083151502179055508215611540578373ffffffffffffffffffffffffffffffffffffffff167f6b713f4f12b0a0860e4b6b54d27ef8de95da632b1250f5c12f8254fdedbc2ebd60405160405180910390a2611584565b8373ffffffffffffffffffffffffffffffffffffffff167f3afada3900b4909463d8a846fbdc12d6b5c4e8030bd6bc1215822ecee62357ba60405160405180910390a25b50505050565b6000600660019054906101000a900473ffffffffffffffffffffffffffffffffffffffff16905081600660016101000a81548173ffffffffffffffffffffffffffffffffffffffff021916908373ffffffffffffffffffffffffffffffffffffffff1602179055508173ffffffffffffffffffffffffffffffffffffffff168173ffffffffffffffffffffffffffffffffffffffff167f8be0079c531659141344cd1fd0a4f28419497f9722a3daafe3b4186f6b6457e060405160405180910390a35050565b611658610947565b15611698576040517f08c379a000000000000000000000000000000000000000000000000000000000815260040161168f906125db565b60405180910390fd5b6001600660006101000a81548160ff0219169083151502179055507f62e78cea01bee320cd4e420270b5ea74000d11b0c9f74754ebdbfc544b05a2586116dc6110ca565b6040516116e991906124a3565b60405180910390a1565b600073ffffffffffffffffffffffffffffffffffffffff168273ffffffffffffffffffffffffffffffffffffffff161415611763576040517f08c379a000000000000000000000000000000000000000000000000000000000815260040161175a9061269b565b60405180910390fd5b61176f8260008361196e565b6000600160008473ffffffffffffffffffffffffffffffffffffffff1673ffffffffffffffffffffffffffffffffffffffff168152602001908152602001600020549050818110156117f6576040517f08c379a00000000000000000000000000000000000000000000000000000000081526004016117ed9061253b565b60405180910390fd5b818103600160008573ffffffffffffffffffffffffffffffffffffffff1673ffffffffffffffffffffffffffffffffffffffff16815260200190815260200160002081905550816003600082825461184e9190612843565b92505081905550600073ffffffffffffffffffffffffffffffffffffffff168373ffffffffffffffffffffffffffffffffffffffff167fddf252ad1be2c89b69c2b068fc378daa952ba7f163c4a11628f55a4df523b3ef846040516118b3919061279b565b60405180910390a36118c78360008461197e565b505050565b6118d7838383611983565b6118e083610658565b15611920576040517f08c379a00000000000000000000000000000000000000000000000000000000081526004016119179061259b565b60405180910390fd5b61192982610658565b15611969576040517f08c379a00000000000000000000000000000000000000000000000000000000081526004016119609061267b565b60405180910390fd5b505050565b611979838383610f35565b505050565b505050565b600073ffffffffffffffffffffffffffffffffffffffff168373ffffffffffffffffffffffffffffffffffffffff1614156119f3576040517f08c379a00000000000000000000000000000000000000000000000000000000081526004016119ea906126fb565b60405180910390fd5b600073ffffffffffffffffffffffffffffffffffffffff168273ffffffffffffffffffffffffffffffffffffffff161415611a63576040517f08c379a0000000000000000000000000000000000000000000000000000000008152600401611a5a9061257b565b60405180910390fd5b80600260008573ffffffffffffffffffffffffffffffffffffffff1673ffffffffffffffffffffffffffffffffffffffff16815260200190815260200160002060008473ffffffffffffffffffffffffffffffffffffffff1673ffffffffffffffffffffffffffffffffffffffff168152602001908152602001600020819055508173ffffffffffffffffffffffffffffffffffffffff168373ffffffffffffffffffffffffffffffffffffffff167f8c5be1e5ebec7d5bd14f71427d1e84f3dd0314c0f7b2291e5b200ac8c7c3b92583604051611b41919061279b565b60405180910390a3505050565b600081359050611b5d816129a0565b92915050565b600081359050611b72816129b7565b92915050565b600060208284031215611b8a57600080fd5b6000611b9884828501611b4e565b91505092915050565b60008060408385031215611bb457600080fd5b6000611bc285828601611b4e565b9250506020611bd385828601611b4e565b9150509250929050565b600080600060608486031215611bf257600080fd5b6000611c0086828701611b4e565b9350506020611c1186828701611b4e565b9250506040611c2286828701611b63565b9150509250925092565b60008060408385031215611c3f57600080fd5b6000611c4d85828601611b4e565b9250506020611c5e85828601611b63565b9150509250929050565b611c7181612877565b82525050565b611c8081612889565b82525050565b6000611c91826127d1565b611c9b81856127dc565b9350611cab8185602086016128cc565b611cb48161298f565b840191505092915050565b6000611ccc6023836127dc565b91507f45524332303a207472616e7366657220746f20746865207a65726f206164647260008301527f65737300000000000000000000000000000000000000000000000000000000006020830152604082019050919050565b6000611d326014836127dc565b91507f5061757361626c653a206e6f74207061757365640000000000000000000000006000830152602082019050919050565b6000611d726022836127dc565b91507f45524332303a206275726e20616d6f756e7420657863656564732062616c616e60008301527f63650000000000000000000000000000000000000000000000000000000000006020830152604082019050919050565b6000611dd86026836127dc565b91507f4f776e61626c653a206e6577206f776e657220697320746865207a65726f206160008301527f64647265737300000000000000000000000000000000000000000000000000006020830152604082019050919050565b6000611e3e6022836127dc565b91507f45524332303a20617070726f766520746f20746865207a65726f20616464726560008301527f73730000000000000000000000000000000000000000000000000000000000006020830152604082019050919050565b6000611ea46025836127dc565b91507f4552433230426c61636b6c69737461626c653a204f776e657220626c61636b6c60008301527f69737465640000000000000000000000000000000000000000000000000000006020830152604082019050919050565b6000611f0a6026836127dc565b91507f45524332303a207472616e7366657220616d6f756e742065786365656473206260008301527f616c616e636500000000000000000000000000000000000000000000000000006020830152604082019050919050565b6000611f706010836127dc565b91507f5061757361626c653a20706175736564000000000000000000000000000000006000830152602082019050919050565b6000611fb06028836127dc565b91507f45524332303a207472616e7366657220616d6f756e742065786365656473206160008301527f6c6c6f77616e63650000000000000000000000000000000000000000000000006020830152604082019050919050565b60006120166029836127dc565b91507f4552433230426c61636b6c69737461626c653a20526563697069656e7420626c60008301527f61636b6c697374656400000000000000000000000000000000000000000000006020830152604082019050919050565b600061207c6020836127dc565b91507f4f776e61626c653a2063616c6c6572206973206e6f7420746865206f776e65726000830152602082019050919050565b60006120bc6026836127dc565b91507f4552433230426c61636b6c69737461626c653a2043616c6c657220626c61636b60008301527f6c697374656400000000000000000000000000000000000000000000000000006020830152604082019050919050565b60006121226027836127dc565b91507f4552433230426c61636b6c69737461626c653a205370656e64657220626c616360008301527f6b6c6973746564000000000000000000000000000000000000000000000000006020830152604082019050919050565b60006121886021836127dc565b91507f45524332303a206275726e2066726f6d20746865207a65726f2061646472657360008301527f73000000000000000000000000000000000000000000000000000000000000006020830152604082019050919050565b60006121ee6025836127dc565b91507f45524332303a207472616e736665722066726f6d20746865207a65726f20616460008301527f64726573730000000000000000000000000000000000000000000000000000006020830152604082019050919050565b60006122546026836127dc565b91507f4552433230426c61636b6c69737461626c653a2053656e64657220626c61636b60008301527f6c697374656400000000000000000000000000000000000000000000000000006020830152604082019050919050565b60006122ba6024836127dc565b91507f45524332303a20617070726f76652066726f6d20746865207a65726f2061646460008301527f72657373000000000000000000000000000000000000000000000000000000006020830152604082019050919050565b6000612320601c836127dc565b91507f424956453a204d696e74696e67206973206e6f7420616c6c6f776564000000006000830152602082019050919050565b6000612360602d836127dc565b91507f426c61636b6c69737461626c653a204163636f756e74206e6f7420696e20657860008301527f70656374656420737461747573000000000000000000000000000000000000006020830152604082019050919050565b60006123c66025836127dc565b91507f45524332303a2064656372656173656420616c6c6f77616e63652062656c6f7760008301527f207a65726f0000000000000000000000000000000000000000000000000000006020830152604082019050919050565b600061242c602a836127dc565b91507f45524332305061757361626c653a20746f6b656e207472616e7366657220776860008301527f696c6520706175736564000000000000000000000000000000000000000000006020830152604082019050919050565b61248e816128b5565b82525050565b61249d816128bf565b82525050565b60006020820190506124b86000830184611c68565b92915050565b60006020820190506124d36000830184611c77565b92915050565b600060208201905081810360008301526124f38184611c86565b905092915050565b6000602082019050818103600083015261251481611cbf565b9050919050565b6000602082019050818103600083015261253481611d25565b9050919050565b6000602082019050818103600083015261255481611d65565b9050919050565b6000602082019050818103600083015261257481611dcb565b9050919050565b6000602082019050818103600083015261259481611e31565b9050919050565b600060208201905081810360008301526125b481611e97565b9050919050565b600060208201905081810360008301526125d481611efd565b9050919050565b600060208201905081810360008301526125f481611f63565b9050919050565b6000602082019050818103600083015261261481611fa3565b9050919050565b6000602082019050818103600083015261263481612009565b9050919050565b600060208201905081810360008301526126548161206f565b9050919050565b60006020820190508181036000830152612674816120af565b9050919050565b6000602082019050818103600083015261269481612115565b9050919050565b600060208201905081810360008301526126b48161217b565b9050919050565b600060208201905081810360008301526126d4816121e1565b9050919050565b600060208201905081810360008301526126f481612247565b9050919050565b60006020820190508181036000830152612714816122ad565b9050919050565b6000602082019050818103600083015261273481612313565b9050919050565b6000602082019050818103600083015261275481612353565b9050919050565b60006020820190508181036000830152612774816123b9565b9050919050565b600060208201905081810360008301526127948161241f565b9050919050565b60006020820190506127b06000830184612485565b92915050565b60006020820190506127cb6000830184612494565b92915050565b600081519050919050565b600082825260208201905092915050565b60006127f8826128b5565b9150612803836128b5565b9250827fffffffffffffffffffffffffffffffffffffffffffffffffffffffffffffffff0382111561283857612837612931565b5b828201905092915050565b600061284e826128b5565b9150612859836128b5565b92508282101561286c5761286b612931565b5b828203905092915050565b600061288282612895565b9050919050565b60008115159050919050565b600073ffffffffffffffffffffffffffffffffffffffff82169050919050565b6000819050919050565b600060ff82169050919050565b60005b838110156128ea5780820151818401526020810190506128cf565b838111156128f9576000848401525b50505050565b6000600282049050600182168061291757607f821691505b6020821081141561292b5761292a612960565b5b50919050565b7f4e487b7100000000000000000000000000000000000000000000000000000000600052601160045260246000fd5b7f4e487b7100000000000000000000000000000000000000000000000000000000600052602260045260246000fd5b6000601f19601f8301169050919050565b6129a981612877565b81146129b457600080fd5b50565b6129c0816128b5565b81146129cb57600080fd5b5056fea26469706673582212206a4e96e5133744729d09ca7825718e8c40089132630cbb07c1dc5ca4f9f3c18764736f6c63430008000033",
  "immutableReferences": {},
  "source": "pragma solidity 0.8.0;\n\nimport \"./BizverseWorldERC20.sol\";\n\ncontract BIVE is BizverseWorldERC20 {\n    constructor(uint256 initialSupply) BizverseWorldERC20(\"BIZVERSE\", \"BIVE\") {\n        _mint(_msgSender(), initialSupply);\n    }\n\n    function decimals() public pure override returns (uint8) {\n        return 4;\n    }\n\n    function mint(address to, uint256 amount)\n        public\n        virtual\n        override\n        returns (bool)\n    {\n        revert(\"BIVE: Minting is not allowed\");\n    }\n}\n",
  "sourcePath": "/home/black/Working/blockchain-learning/solidity/bizverse/contracts/BIVE.sol",
  "compiler": {
    "name": "solc",
    "version": "0.8.0+commit.c7dfd78e.Emscripten.clang"
  },
  "schemaVersion": "3.4.3",
  "updatedAt": "2021-11-27T09:27:49.897Z",
  "networkType": "ethereum",
  "devdoc": {
    "kind": "dev",
    "methods": {
      "allowance(address,address)": {
        "details": "See {IERC20-allowance}."
      },
      "approve(address,uint256)": {
        "details": "See {IERC20-approve}. Requirements: - `spender` cannot be the zero address."
      },
      "balanceOf(address)": {
        "details": "See {IERC20-balanceOf}."
      },
      "decimals()": {
        "details": "Returns the number of decimals used to get its user representation. For example, if `decimals` equals `2`, a balance of `505` tokens should be displayed to a user as `5.05` (`505 / 10 ** 2`). Tokens usually opt for a value of 18, imitating the relationship between Ether and Wei. This is the value {ERC20} uses, unless this function is overridden; NOTE: This information is only used for _display_ purposes: it in no way affects any of the arithmetic of the contract, including {IERC20-balanceOf} and {IERC20-transfer}."
      },
      "decreaseAllowance(address,uint256)": {
        "details": "Atomically decreases the allowance granted to `spender` by the caller. This is an alternative to {approve} that can be used as a mitigation for problems described in {IERC20-approve}. Emits an {Approval} event indicating the updated allowance. Requirements: - `spender` cannot be the zero address. - `spender` must have allowance for the caller of at least `subtractedValue`."
      },
      "increaseAllowance(address,uint256)": {
        "details": "Atomically increases the allowance granted to `spender` by the caller. This is an alternative to {approve} that can be used as a mitigation for problems described in {IERC20-approve}. Emits an {Approval} event indicating the updated allowance. Requirements: - `spender` cannot be the zero address."
      },
      "name()": {
        "details": "Returns the name of the token."
      },
      "owner()": {
        "details": "Returns the address of the current owner."
      },
      "paused()": {
        "details": "Returns true if the contract is paused, and false otherwise."
      },
      "renounceOwnership()": {
        "details": "Leaves the contract without owner. It will not be possible to call `onlyOwner` functions anymore. Can only be called by the current owner. NOTE: Renouncing ownership will leave the contract without an owner, thereby removing any functionality that is only available to the owner."
      },
      "symbol()": {
        "details": "Returns the symbol of the token, usually a shorter version of the name."
      },
      "totalSupply()": {
        "details": "See {IERC20-totalSupply}."
      },
      "transfer(address,uint256)": {
        "details": "See {IERC20-transfer}. Requirements: - `recipient` cannot be the zero address. - the caller must have a balance of at least `amount`."
      },
      "transferFrom(address,address,uint256)": {
        "details": "See {IERC20-transferFrom}. Emits an {Approval} event indicating the updated allowance. This is not required by the EIP. See the note at the beginning of {ERC20}. Requirements: - `sender` and `recipient` cannot be the zero address. - `sender` must have a balance of at least `amount`. - the caller must have allowance for ``sender``'s tokens of at least `amount`."
      },
      "transferOwnership(address)": {
        "details": "Transfers ownership of the contract to a new account (`newOwner`). Can only be called by the current owner."
      }
    },
    "version": 1
  },
  "userdoc": {
    "kind": "user",
    "methods": {},
    "version": 1
  }
}