{
  "contractName": "BizverseNFT",
  "abi": [
    {
      "inputs": [
        {
          "internalType": "string",
          "name": "name",
          "type": "string"
        },
        {
          "internalType": "string",
          "name": "symbol",
          "type": "string"
        },
        {
          "internalType": "address",
          "name": "defaultMinter",
          "type": "address"
        }
      ],
      "stateMutability": "nonpayable",
      "type": "constructor"
    },
    {
      "anonymous": false,
      "inputs": [
        {
          "indexed": true,
          "internalType": "address",
          "name": "owner",
          "type": "address"
        },
        {
          "indexed": true,
          "internalType": "address",
          "name": "approved",
          "type": "address"
        },
        {
          "indexed": true,
          "internalType": "uint256",
          "name": "tokenId",
          "type": "uint256"
        }
      ],
      "name": "Approval",
      "type": "event"
    },
    {
      "anonymous": false,
      "inputs": [
        {
          "indexed": true,
          "internalType": "address",
          "name": "owner",
          "type": "address"
        },
        {
          "indexed": true,
          "internalType": "address",
          "name": "operator",
          "type": "address"
        },
        {
          "indexed": false,
          "internalType": "bool",
          "name": "approved",
          "type": "bool"
        }
      ],
      "name": "ApprovalForAll",
      "type": "event"
    },
    {
      "anonymous": false,
      "inputs": [
        {
          "indexed": true,
          "internalType": "bytes32",
          "name": "role",
          "type": "bytes32"
        },
        {
          "indexed": true,
          "internalType": "bytes32",
          "name": "previousAdminRole",
          "type": "bytes32"
        },
        {
          "indexed": true,
          "internalType": "bytes32",
          "name": "newAdminRole",
          "type": "bytes32"
        }
      ],
      "name": "RoleAdminChanged",
      "type": "event"
    },
    {
      "anonymous": false,
      "inputs": [
        {
          "indexed": true,
          "internalType": "bytes32",
          "name": "role",
          "type": "bytes32"
        },
        {
          "indexed": true,
          "internalType": "address",
          "name": "account",
          "type": "address"
        },
        {
          "indexed": true,
          "internalType": "address",
          "name": "sender",
          "type": "address"
        }
      ],
      "name": "RoleGranted",
      "type": "event"
    },
    {
      "anonymous": false,
      "inputs": [
        {
          "indexed": true,
          "internalType": "bytes32",
          "name": "role",
          "type": "bytes32"
        },
        {
          "indexed": true,
          "internalType": "address",
          "name": "account",
          "type": "address"
        },
        {
          "indexed": true,
          "internalType": "address",
          "name": "sender",
          "type": "address"
        }
      ],
      "name": "RoleRevoked",
      "type": "event"
    },
    {
      "anonymous": false,
      "inputs": [
        {
          "indexed": true,
          "internalType": "address",
          "name": "from",
          "type": "address"
        },
        {
          "indexed": true,
          "internalType": "address",
          "name": "to",
          "type": "address"
        },
        {
          "indexed": true,
          "internalType": "uint256",
          "name": "tokenId",
          "type": "uint256"
        }
      ],
      "name": "Transfer",
      "type": "event"
    },
    {
      "inputs": [],
      "name": "DEFAULT_ADMIN_ROLE",
      "outputs": [
        {
          "internalType": "bytes32",
          "name": "",
          "type": "bytes32"
        }
      ],
      "stateMutability": "view",
      "type": "function"
    },
    {
      "inputs": [],
      "name": "MINTER_ROLE",
      "outputs": [
        {
          "internalType": "bytes32",
          "name": "",
          "type": "bytes32"
        }
      ],
      "stateMutability": "view",
      "type": "function"
    },
    {
      "inputs": [
        {
          "internalType": "address",
          "name": "to",
          "type": "address"
        },
        {
          "internalType": "uint256",
          "name": "tokenId",
          "type": "uint256"
        }
      ],
      "name": "approve",
      "outputs": [],
      "stateMutability": "nonpayable",
      "type": "function"
    },
    {
      "inputs": [
        {
          "internalType": "address",
          "name": "owner",
          "type": "address"
        }
      ],
      "name": "balanceOf",
      "outputs": [
        {
          "internalType": "uint256",
          "name": "",
          "type": "uint256"
        }
      ],
      "stateMutability": "view",
      "type": "function"
    },
    {
      "inputs": [
        {
          "internalType": "uint256",
          "name": "tokenId",
          "type": "uint256"
        }
      ],
      "name": "getApproved",
      "outputs": [
        {
          "internalType": "address",
          "name": "",
          "type": "address"
        }
      ],
      "stateMutability": "view",
      "type": "function"
    },
    {
      "inputs": [
        {
          "internalType": "bytes32",
          "name": "role",
          "type": "bytes32"
        }
      ],
      "name": "getRoleAdmin",
      "outputs": [
        {
          "internalType": "bytes32",
          "name": "",
          "type": "bytes32"
        }
      ],
      "stateMutability": "view",
      "type": "function"
    },
    {
      "inputs": [
        {
          "internalType": "bytes32",
          "name": "role",
          "type": "bytes32"
        },
        {
          "internalType": "address",
          "name": "account",
          "type": "address"
        }
      ],
      "name": "grantRole",
      "outputs": [],
      "stateMutability": "nonpayable",
      "type": "function"
    },
    {
      "inputs": [
        {
          "internalType": "bytes32",
          "name": "role",
          "type": "bytes32"
        },
        {
          "internalType": "address",
          "name": "account",
          "type": "address"
        }
      ],
      "name": "hasRole",
      "outputs": [
        {
          "internalType": "bool",
          "name": "",
          "type": "bool"
        }
      ],
      "stateMutability": "view",
      "type": "function"
    },
    {
      "inputs": [
        {
          "internalType": "address",
          "name": "owner",
          "type": "address"
        },
        {
          "internalType": "address",
          "name": "operator",
          "type": "address"
        }
      ],
      "name": "isApprovedForAll",
      "outputs": [
        {
          "internalType": "bool",
          "name": "",
          "type": "bool"
        }
      ],
      "stateMutability": "view",
      "type": "function"
    },
    {
      "inputs": [],
      "name": "name",
      "outputs": [
        {
          "internalType": "string",
          "name": "",
          "type": "string"
        }
      ],
      "stateMutability": "view",
      "type": "function"
    },
    {
      "inputs": [
        {
          "internalType": "uint256",
          "name": "tokenId",
          "type": "uint256"
        }
      ],
      "name": "ownerOf",
      "outputs": [
        {
          "internalType": "address",
          "name": "",
          "type": "address"
        }
      ],
      "stateMutability": "view",
      "type": "function"
    },
    {
      "inputs": [
        {
          "internalType": "bytes32",
          "name": "role",
          "type": "bytes32"
        },
        {
          "internalType": "address",
          "name": "account",
          "type": "address"
        }
      ],
      "name": "renounceRole",
      "outputs": [],
      "stateMutability": "nonpayable",
      "type": "function"
    },
    {
      "inputs": [
        {
          "internalType": "bytes32",
          "name": "role",
          "type": "bytes32"
        },
        {
          "internalType": "address",
          "name": "account",
          "type": "address"
        }
      ],
      "name": "revokeRole",
      "outputs": [],
      "stateMutability": "nonpayable",
      "type": "function"
    },
    {
      "inputs": [
        {
          "internalType": "address",
          "name": "from",
          "type": "address"
        },
        {
          "internalType": "address",
          "name": "to",
          "type": "address"
        },
        {
          "internalType": "uint256",
          "name": "tokenId",
          "type": "uint256"
        }
      ],
      "name": "safeTransferFrom",
      "outputs": [],
      "stateMutability": "nonpayable",
      "type": "function"
    },
    {
      "inputs": [
        {
          "internalType": "address",
          "name": "from",
          "type": "address"
        },
        {
          "internalType": "address",
          "name": "to",
          "type": "address"
        },
        {
          "internalType": "uint256",
          "name": "tokenId",
          "type": "uint256"
        },
        {
          "internalType": "bytes",
          "name": "_data",
          "type": "bytes"
        }
      ],
      "name": "safeTransferFrom",
      "outputs": [],
      "stateMutability": "nonpayable",
      "type": "function"
    },
    {
      "inputs": [
        {
          "internalType": "address",
          "name": "operator",
          "type": "address"
        },
        {
          "internalType": "bool",
          "name": "approved",
          "type": "bool"
        }
      ],
      "name": "setApprovalForAll",
      "outputs": [],
      "stateMutability": "nonpayable",
      "type": "function"
    },
    {
      "inputs": [],
      "name": "symbol",
      "outputs": [
        {
          "internalType": "string",
          "name": "",
          "type": "string"
        }
      ],
      "stateMutability": "view",
      "type": "function"
    },
    {
      "inputs": [
        {
          "internalType": "uint256",
          "name": "tokenId",
          "type": "uint256"
        }
      ],
      "name": "tokenURI",
      "outputs": [
        {
          "internalType": "string",
          "name": "",
          "type": "string"
        }
      ],
      "stateMutability": "view",
      "type": "function"
    },
    {
      "inputs": [
        {
          "internalType": "address",
          "name": "from",
          "type": "address"
        },
        {
          "internalType": "address",
          "name": "to",
          "type": "address"
        },
        {
          "internalType": "uint256",
          "name": "tokenId",
          "type": "uint256"
        }
      ],
      "name": "transferFrom",
      "outputs": [],
      "stateMutability": "nonpayable",
      "type": "function"
    },
    {
      "inputs": [
        {
          "internalType": "address",
          "name": "_to",
          "type": "address"
        },
        {
          "internalType": "string",
          "name": "_tokenURI",
          "type": "string"
        }
      ],
      "name": "mint",
      "outputs": [
        {
          "internalType": "uint256",
          "name": "",
          "type": "uint256"
        }
      ],
      "stateMutability": "nonpayable",
      "type": "function"
    },
    {
      "inputs": [
        {
          "internalType": "uint256",
          "name": "tokenId",
          "type": "uint256"
        }
      ],
      "name": "burn",
      "outputs": [
        {
          "internalType": "bool",
          "name": "",
          "type": "bool"
        }
      ],
      "stateMutability": "nonpayable",
      "type": "function"
    },
    {
      "inputs": [
        {
          "internalType": "bytes4",
          "name": "interfaceId",
          "type": "bytes4"
        }
      ],
      "name": "supportsInterface",
      "outputs": [
        {
          "internalType": "bool",
          "name": "",
          "type": "bool"
        }
      ],
      "stateMutability": "view",
      "type": "function"
    }
  ],
  "bytecode": "0x60806040523480156200001157600080fd5b5060405162003de038038062003de0833981810160405281019062000037919062000371565b828281600090805190602001906200005192919062000238565b5080600190805190602001906200006a92919062000238565b5050506200009f7f9f2df0fed2c77648de5860a4cc508cd0818c85b8b8a1ab4ceeef8d981c8956a682620000bd60201b60201c565b620000b46000801b33620000bd60201b60201c565b50505062000578565b620000cf8282620000d360201b60201c565b5050565b620000e58282620001c560201b60201c565b620001c15760016007600084815260200190815260200160002060000160008373ffffffffffffffffffffffffffffffffffffffff1673ffffffffffffffffffffffffffffffffffffffff16815260200190815260200160002060006101000a81548160ff021916908315150217905550620001666200023060201b60201c565b73ffffffffffffffffffffffffffffffffffffffff168173ffffffffffffffffffffffffffffffffffffffff16837f2f8788117e7eff1d82e926ec794901d17c78024a50270940304540a733656f0d60405160405180910390a45b5050565b60006007600084815260200190815260200160002060000160008373ffffffffffffffffffffffffffffffffffffffff1673ffffffffffffffffffffffffffffffffffffffff16815260200190815260200160002060009054906101000a900460ff16905092915050565b600033905090565b8280546200024690620004ca565b90600052602060002090601f0160209004810192826200026a5760008555620002b6565b82601f106200028557805160ff1916838001178555620002b6565b82800160010185558215620002b6579182015b82811115620002b557825182559160200191906001019062000298565b5b509050620002c59190620002c9565b5090565b5b80821115620002e4576000816000905550600101620002ca565b5090565b6000620002ff620002f9846200042d565b620003f9565b9050828152602081018484840111156200031857600080fd5b6200032584828562000494565b509392505050565b6000815190506200033e816200055e565b92915050565b600082601f8301126200035657600080fd5b815162000368848260208601620002e8565b91505092915050565b6000806000606084860312156200038757600080fd5b600084015167ffffffffffffffff811115620003a257600080fd5b620003b08682870162000344565b935050602084015167ffffffffffffffff811115620003ce57600080fd5b620003dc8682870162000344565b9250506040620003ef868287016200032d565b9150509250925092565b6000604051905081810181811067ffffffffffffffff821117156200042357620004226200052f565b5b8060405250919050565b600067ffffffffffffffff8211156200044b576200044a6200052f565b5b601f19601f8301169050602081019050919050565b60006200046d8262000474565b9050919050565b600073ffffffffffffffffffffffffffffffffffffffff82169050919050565b60005b83811015620004b457808201518184015260208101905062000497565b83811115620004c4576000848401525b50505050565b60006002820490506001821680620004e357607f821691505b60208210811415620004fa57620004f962000500565b5b50919050565b7f4e487b7100000000000000000000000000000000000000000000000000000000600052602260045260246000fd5b7f4e487b7100000000000000000000000000000000000000000000000000000000600052604160045260246000fd5b620005698162000460565b81146200057557600080fd5b50565b61385880620005886000396000f3fe608060405234801561001057600080fd5b50600436106101425760003560e01c806370a08231116100b8578063b88d4fde1161007c578063b88d4fde14610399578063c87b56dd146103b5578063d0def521146103e5578063d539139314610415578063d547741f14610433578063e985e9c51461044f57610142565b806370a08231146102e157806391d148541461031157806395d89b4114610341578063a217fddf1461035f578063a22cb4651461037d57610142565b8063248a9ca31161010a578063248a9ca3146101fd5780632f2ff15d1461022d57806336568abe1461024957806342842e0e1461026557806342966c68146102815780636352211e146102b157610142565b806301ffc9a71461014757806306fdde0314610177578063081812fc14610195578063095ea7b3146101c557806323b872dd146101e1575b600080fd5b610161600480360381019061015c919061277d565b61047f565b60405161016e91906130b0565b60405180910390f35b61017f610491565b60405161018c91906130e6565b60405180910390f35b6101af60048036038101906101aa91906127cf565b610523565b6040516101bc9190613049565b60405180910390f35b6101df60048036038101906101da91906126dc565b6105a8565b005b6101fb60048036038101906101f69190612582565b6106c0565b005b61021760048036038101906102129190612718565b610720565b60405161022491906130cb565b60405180910390f35b61024760048036038101906102429190612741565b610740565b005b610263600480360381019061025e9190612741565b610769565b005b61027f600480360381019061027a9190612582565b6107ec565b005b61029b600480360381019061029691906127cf565b61080c565b6040516102a891906130b0565b60405180910390f35b6102cb60048036038101906102c691906127cf565b610836565b6040516102d89190613049565b60405180910390f35b6102fb60048036038101906102f6919061251d565b6108e8565b6040516103089190613348565b60405180910390f35b61032b60048036038101906103269190612741565b6109a0565b60405161033891906130b0565b60405180910390f35b610349610a0b565b60405161035691906130e6565b60405180910390f35b610367610a9d565b60405161037491906130cb565b60405180910390f35b6103976004803603810190610392919061264c565b610aa4565b005b6103b360048036038101906103ae91906125d1565b610c25565b005b6103cf60048036038101906103ca91906127cf565b610c87565b6040516103dc91906130e6565b60405180910390f35b6103ff60048036038101906103fa9190612688565b610dd9565b60405161040c9190613348565b60405180910390f35b61041d610e44565b60405161042a91906130cb565b60405180910390f35b61044d60048036038101906104489190612741565b610e68565b005b61046960048036038101906104649190612546565b610e91565b60405161047691906130b0565b60405180910390f35b600061048a82610f25565b9050919050565b6060600080546104a090613636565b80601f01602080910402602001604051908101604052809291908181526020018280546104cc90613636565b80156105195780601f106104ee57610100808354040283529160200191610519565b820191906000526020600020905b8154815290600101906020018083116104fc57829003601f168201915b5050505050905090565b600061052e82610f9f565b61056d576040517f08c379a000000000000000000000000000000000000000000000000000000000815260040161056490613288565b60405180910390fd5b6004600083815260200190815260200160002060009054906101000a900473ffffffffffffffffffffffffffffffffffffffff169050919050565b60006105b382610836565b90508073ffffffffffffffffffffffffffffffffffffffff168373ffffffffffffffffffffffffffffffffffffffff161415610624576040517f08c379a000000000000000000000000000000000000000000000000000000000815260040161061b906132e8565b60405180910390fd5b8073ffffffffffffffffffffffffffffffffffffffff1661064361100b565b73ffffffffffffffffffffffffffffffffffffffff16148061067257506106718161066c61100b565b610e91565b5b6106b1576040517f08c379a00000000000000000000000000000000000000000000000000000000081526004016106a8906131c8565b60405180910390fd5b6106bb8383611013565b505050565b6106d16106cb61100b565b826110cc565b610710576040517f08c379a000000000000000000000000000000000000000000000000000000000815260040161070790613308565b60405180910390fd5b61071b8383836111aa565b505050565b600060076000838152602001908152602001600020600101549050919050565b61074982610720565b61075a8161075561100b565b611406565b61076483836114a3565b505050565b61077161100b565b73ffffffffffffffffffffffffffffffffffffffff168173ffffffffffffffffffffffffffffffffffffffff16146107de576040517f08c379a00000000000000000000000000000000000000000000000000000000081526004016107d590613328565b60405180910390fd5b6107e88282611584565b5050565b61080783838360405180602001604052806000815250610c25565b505050565b60008060001b6108238161081e61100b565b611406565b61082c83611666565b6001915050919050565b6000806002600084815260200190815260200160002060009054906101000a900473ffffffffffffffffffffffffffffffffffffffff169050600073ffffffffffffffffffffffffffffffffffffffff168173ffffffffffffffffffffffffffffffffffffffff1614156108df576040517f08c379a00000000000000000000000000000000000000000000000000000000081526004016108d690613208565b60405180910390fd5b80915050919050565b60008073ffffffffffffffffffffffffffffffffffffffff168273ffffffffffffffffffffffffffffffffffffffff161415610959576040517f08c379a0000000000000000000000000000000000000000000000000000000008152600401610950906131e8565b60405180910390fd5b600360008373ffffffffffffffffffffffffffffffffffffffff1673ffffffffffffffffffffffffffffffffffffffff168152602001908152602001600020549050919050565b60006007600084815260200190815260200160002060000160008373ffffffffffffffffffffffffffffffffffffffff1673ffffffffffffffffffffffffffffffffffffffff16815260200190815260200160002060009054906101000a900460ff16905092915050565b606060018054610a1a90613636565b80601f0160208091040260200160405190810160405280929190818152602001828054610a4690613636565b8015610a935780601f10610a6857610100808354040283529160200191610a93565b820191906000526020600020905b815481529060010190602001808311610a7657829003601f168201915b5050505050905090565b6000801b81565b610aac61100b565b73ffffffffffffffffffffffffffffffffffffffff168273ffffffffffffffffffffffffffffffffffffffff161415610b1a576040517f08c379a0000000000000000000000000000000000000000000000000000000008152600401610b1190613188565b60405180910390fd5b8060056000610b2761100b565b73ffffffffffffffffffffffffffffffffffffffff1673ffffffffffffffffffffffffffffffffffffffff16815260200190815260200160002060008473ffffffffffffffffffffffffffffffffffffffff1673ffffffffffffffffffffffffffffffffffffffff16815260200190815260200160002060006101000a81548160ff0219169083151502179055508173ffffffffffffffffffffffffffffffffffffffff16610bd461100b565b73ffffffffffffffffffffffffffffffffffffffff167f17307eab39ab6107e8899845ad3d59bd9653f200f220920489ca2b5937696c3183604051610c1991906130b0565b60405180910390a35050565b610c36610c3061100b565b836110cc565b610c75576040517f08c379a0000000000000000000000000000000000000000000000000000000008152600401610c6c90613308565b60405180910390fd5b610c81848484846116b9565b50505050565b6060610c9282610f9f565b610cd1576040517f08c379a0000000000000000000000000000000000000000000000000000000008152600401610cc890613268565b60405180910390fd5b6000600660008481526020019081526020016000208054610cf190613636565b80601f0160208091040260200160405190810160405280929190818152602001828054610d1d90613636565b8015610d6a5780601f10610d3f57610100808354040283529160200191610d6a565b820191906000526020600020905b815481529060010190602001808311610d4d57829003601f168201915b505050505090506000610d7b611715565b9050600081511415610d91578192505050610dd4565b600082511115610dc6578082604051602001610dae929190612feb565b60405160208183030381529060405292505050610dd4565b610dcf8461172c565b925050505b919050565b60007f9f2df0fed2c77648de5860a4cc508cd0818c85b8b8a1ab4ceeef8d981c8956a6610e0d81610e0861100b565b611406565b610e1760086117d3565b6000610e2360086117e9565b9050610e2f85826117f7565b610e3981856119c5565b809250505092915050565b7f9f2df0fed2c77648de5860a4cc508cd0818c85b8b8a1ab4ceeef8d981c8956a681565b610e7182610720565b610e8281610e7d61100b565b611406565b610e8c8383611584565b505050565b6000600560008473ffffffffffffffffffffffffffffffffffffffff1673ffffffffffffffffffffffffffffffffffffffff16815260200190815260200160002060008373ffffffffffffffffffffffffffffffffffffffff1673ffffffffffffffffffffffffffffffffffffffff16815260200190815260200160002060009054906101000a900460ff16905092915050565b60007f7965db0b000000000000000000000000000000000000000000000000000000007bffffffffffffffffffffffffffffffffffffffffffffffffffffffff1916827bffffffffffffffffffffffffffffffffffffffffffffffffffffffff19161480610f985750610f9782611a39565b5b9050919050565b60008073ffffffffffffffffffffffffffffffffffffffff166002600084815260200190815260200160002060009054906101000a900473ffffffffffffffffffffffffffffffffffffffff1673ffffffffffffffffffffffffffffffffffffffff1614159050919050565b600033905090565b816004600083815260200190815260200160002060006101000a81548173ffffffffffffffffffffffffffffffffffffffff021916908373ffffffffffffffffffffffffffffffffffffffff160217905550808273ffffffffffffffffffffffffffffffffffffffff1661108683610836565b73ffffffffffffffffffffffffffffffffffffffff167f8c5be1e5ebec7d5bd14f71427d1e84f3dd0314c0f7b2291e5b200ac8c7c3b92560405160405180910390a45050565b60006110d782610f9f565b611116576040517f08c379a000000000000000000000000000000000000000000000000000000000815260040161110d906131a8565b60405180910390fd5b600061112183610836565b90508073ffffffffffffffffffffffffffffffffffffffff168473ffffffffffffffffffffffffffffffffffffffff16148061119057508373ffffffffffffffffffffffffffffffffffffffff1661117884610523565b73ffffffffffffffffffffffffffffffffffffffff16145b806111a157506111a08185610e91565b5b91505092915050565b8273ffffffffffffffffffffffffffffffffffffffff166111ca82610836565b73ffffffffffffffffffffffffffffffffffffffff1614611220576040517f08c379a0000000000000000000000000000000000000000000000000000000008152600401611217906132a8565b60405180910390fd5b600073ffffffffffffffffffffffffffffffffffffffff168273ffffffffffffffffffffffffffffffffffffffff161415611290576040517f08c379a000000000000000000000000000000000000000000000000000000000815260040161128790613168565b60405180910390fd5b61129b838383611b1b565b6112a6600082611013565b6001600360008573ffffffffffffffffffffffffffffffffffffffff1673ffffffffffffffffffffffffffffffffffffffff16815260200190815260200160002060008282546112f69190613518565b925050819055506001600360008473ffffffffffffffffffffffffffffffffffffffff1673ffffffffffffffffffffffffffffffffffffffff168152602001908152602001600020600082825461134d9190613437565b92505081905550816002600083815260200190815260200160002060006101000a81548173ffffffffffffffffffffffffffffffffffffffff021916908373ffffffffffffffffffffffffffffffffffffffff160217905550808273ffffffffffffffffffffffffffffffffffffffff168473ffffffffffffffffffffffffffffffffffffffff167fddf252ad1be2c89b69c2b068fc378daa952ba7f163c4a11628f55a4df523b3ef60405160405180910390a4505050565b61141082826109a0565b61149f576114358173ffffffffffffffffffffffffffffffffffffffff166014611b20565b6114438360001c6020611b20565b60405160200161145492919061300f565b6040516020818303038152906040526040517f08c379a000000000000000000000000000000000000000000000000000000000815260040161149691906130e6565b60405180910390fd5b5050565b6114ad82826109a0565b6115805760016007600084815260200190815260200160002060000160008373ffffffffffffffffffffffffffffffffffffffff1673ffffffffffffffffffffffffffffffffffffffff16815260200190815260200160002060006101000a81548160ff02191690831515021790555061152561100b565b73ffffffffffffffffffffffffffffffffffffffff168173ffffffffffffffffffffffffffffffffffffffff16837f2f8788117e7eff1d82e926ec794901d17c78024a50270940304540a733656f0d60405160405180910390a45b5050565b61158e82826109a0565b156116625760006007600084815260200190815260200160002060000160008373ffffffffffffffffffffffffffffffffffffffff1673ffffffffffffffffffffffffffffffffffffffff16815260200190815260200160002060006101000a81548160ff02191690831515021790555061160761100b565b73ffffffffffffffffffffffffffffffffffffffff168173ffffffffffffffffffffffffffffffffffffffff16837ff6391f5c32d9c69d2a47ea670b442974b53935d1edc7fd64eb21e047a839171b60405160405180910390a45b5050565b61166f81611e1a565b600060066000838152602001908152602001600020805461168f90613636565b9050146116b6576006600082815260200190815260200160002060006116b591906122ec565b5b50565b6116c48484846111aa565b6116d084848484611f2b565b61170f576040517f08c379a000000000000000000000000000000000000000000000000000000000815260040161170690613128565b60405180910390fd5b50505050565b606060405180602001604052806000815250905090565b606061173782610f9f565b611776576040517f08c379a000000000000000000000000000000000000000000000000000000000815260040161176d906132c8565b60405180910390fd5b6000611780611715565b905060008151116117a057604051806020016040528060008152506117cb565b806117aa846120c2565b6040516020016117bb929190612feb565b6040516020818303038152906040525b915050919050565b6001816000016000828254019250508190555050565b600081600001549050919050565b600073ffffffffffffffffffffffffffffffffffffffff168273ffffffffffffffffffffffffffffffffffffffff161415611867576040517f08c379a000000000000000000000000000000000000000000000000000000000815260040161185e90613248565b60405180910390fd5b61187081610f9f565b156118b0576040517f08c379a00000000000000000000000000000000000000000000000000000000081526004016118a790613148565b60405180910390fd5b6118bc60008383611b1b565b6001600360008473ffffffffffffffffffffffffffffffffffffffff1673ffffffffffffffffffffffffffffffffffffffff168152602001908152602001600020600082825461190c9190613437565b92505081905550816002600083815260200190815260200160002060006101000a81548173ffffffffffffffffffffffffffffffffffffffff021916908373ffffffffffffffffffffffffffffffffffffffff160217905550808273ffffffffffffffffffffffffffffffffffffffff16600073ffffffffffffffffffffffffffffffffffffffff167fddf252ad1be2c89b69c2b068fc378daa952ba7f163c4a11628f55a4df523b3ef60405160405180910390a45050565b6119ce82610f9f565b611a0d576040517f08c379a0000000000000000000000000000000000000000000000000000000008152600401611a0490613228565b60405180910390fd5b80600660008481526020019081526020016000209080519060200190611a3492919061232c565b505050565b60007f80ac58cd000000000000000000000000000000000000000000000000000000007bffffffffffffffffffffffffffffffffffffffffffffffffffffffff1916827bffffffffffffffffffffffffffffffffffffffffffffffffffffffff19161480611b0457507f5b5e139f000000000000000000000000000000000000000000000000000000007bffffffffffffffffffffffffffffffffffffffffffffffffffffffff1916827bffffffffffffffffffffffffffffffffffffffffffffffffffffffff1916145b80611b145750611b138261226f565b5b9050919050565b505050565b606060006002836002611b3391906134be565b611b3d9190613437565b67ffffffffffffffff811115611b7c577f4e487b7100000000000000000000000000000000000000000000000000000000600052604160045260246000fd5b6040519080825280601f01601f191660200182016040528015611bae5781602001600182028036833780820191505090505b5090507f300000000000000000000000000000000000000000000000000000000000000081600081518110611c0c577f4e487b7100000000000000000000000000000000000000000000000000000000600052603260045260246000fd5b60200101907effffffffffffffffffffffffffffffffffffffffffffffffffffffffffffff1916908160001a9053507f780000000000000000000000000000000000000000000000000000000000000081600181518110611c96577f4e487b7100000000000000000000000000000000000000000000000000000000600052603260045260246000fd5b60200101907effffffffffffffffffffffffffffffffffffffffffffffffffffffffffffff1916908160001a90535060006001846002611cd691906134be565b611ce09190613437565b90505b6001811115611dcc577f3031323334353637383961626364656600000000000000000000000000000000600f861660108110611d48577f4e487b7100000000000000000000000000000000000000000000000000000000600052603260045260246000fd5b1a60f81b828281518110611d85577f4e487b7100000000000000000000000000000000000000000000000000000000600052603260045260246000fd5b60200101907effffffffffffffffffffffffffffffffffffffffffffffffffffffffffffff1916908160001a905350600485901c945080611dc59061360c565b9050611ce3565b5060008414611e10576040517f08c379a0000000000000000000000000000000000000000000000000000000008152600401611e0790613108565b60405180910390fd5b8091505092915050565b6000611e2582610836565b9050611e3381600084611b1b565b611e3e600083611013565b6001600360008373ffffffffffffffffffffffffffffffffffffffff1673ffffffffffffffffffffffffffffffffffffffff1681526020019081526020016000206000828254611e8e9190613518565b925050819055506002600083815260200190815260200160002060006101000a81549073ffffffffffffffffffffffffffffffffffffffff021916905581600073ffffffffffffffffffffffffffffffffffffffff168273ffffffffffffffffffffffffffffffffffffffff167fddf252ad1be2c89b69c2b068fc378daa952ba7f163c4a11628f55a4df523b3ef60405160405180910390a45050565b6000611f4c8473ffffffffffffffffffffffffffffffffffffffff166122d9565b156120b5578373ffffffffffffffffffffffffffffffffffffffff1663150b7a02611f7561100b565b8786866040518563ffffffff1660e01b8152600401611f979493929190613064565b602060405180830381600087803b158015611fb157600080fd5b505af1925050508015611fe257506040513d601f19601f82011682018060405250810190611fdf91906127a6565b60015b612065573d8060008114612012576040519150601f19603f3d011682016040523d82523d6000602084013e612017565b606091505b5060008151141561205d576040517f08c379a000000000000000000000000000000000000000000000000000000000815260040161205490613128565b60405180910390fd5b805181602001fd5b63150b7a0260e01b7bffffffffffffffffffffffffffffffffffffffffffffffffffffffff1916817bffffffffffffffffffffffffffffffffffffffffffffffffffffffff1916149150506120ba565b600190505b949350505050565b6060600082141561210a576040518060400160405280600181526020017f3000000000000000000000000000000000000000000000000000000000000000815250905061226a565b600082905060005b6000821461213c57808061212590613668565b915050600a82612135919061348d565b9150612112565b60008167ffffffffffffffff81111561217e577f4e487b7100000000000000000000000000000000000000000000000000000000600052604160045260246000fd5b6040519080825280601f01601f1916602001820160405280156121b05781602001600182028036833780820191505090505b5090505b60008514612263576001826121c99190613518565b9150600a856121d891906136b1565b60306121e49190613437565b60f81b818381518110612220577f4e487b7100000000000000000000000000000000000000000000000000000000600052603260045260246000fd5b60200101907effffffffffffffffffffffffffffffffffffffffffffffffffffffffffffff1916908160001a905350600a8561225c919061348d565b94506121b4565b8093505050505b919050565b60007f01ffc9a7000000000000000000000000000000000000000000000000000000007bffffffffffffffffffffffffffffffffffffffffffffffffffffffff1916827bffffffffffffffffffffffffffffffffffffffffffffffffffffffff1916149050919050565b600080823b905060008111915050919050565b5080546122f890613636565b6000825580601f1061230a5750612329565b601f01602090049060005260206000209081019061232891906123b2565b5b50565b82805461233890613636565b90600052602060002090601f01602090048101928261235a57600085556123a1565b82601f1061237357805160ff19168380011785556123a1565b828001600101855582156123a1579182015b828111156123a0578251825591602001919060010190612385565b5b5090506123ae91906123b2565b5090565b5b808211156123cb5760008160009055506001016123b3565b5090565b60006123e26123dd84613394565b613363565b9050828152602081018484840111156123fa57600080fd5b6124058482856135ca565b509392505050565b600061242061241b846133c4565b613363565b90508281526020810184848401111561243857600080fd5b6124438482856135ca565b509392505050565b60008135905061245a816137af565b92915050565b60008135905061246f816137c6565b92915050565b600081359050612484816137dd565b92915050565b600081359050612499816137f4565b92915050565b6000815190506124ae816137f4565b92915050565b600082601f8301126124c557600080fd5b81356124d58482602086016123cf565b91505092915050565b600082601f8301126124ef57600080fd5b81356124ff84826020860161240d565b91505092915050565b6000813590506125178161380b565b92915050565b60006020828403121561252f57600080fd5b600061253d8482850161244b565b91505092915050565b6000806040838503121561255957600080fd5b60006125678582860161244b565b92505060206125788582860161244b565b9150509250929050565b60008060006060848603121561259757600080fd5b60006125a58682870161244b565b93505060206125b68682870161244b565b92505060406125c786828701612508565b9150509250925092565b600080600080608085870312156125e757600080fd5b60006125f58782880161244b565b94505060206126068782880161244b565b935050604061261787828801612508565b925050606085013567ffffffffffffffff81111561263457600080fd5b612640878288016124b4565b91505092959194509250565b6000806040838503121561265f57600080fd5b600061266d8582860161244b565b925050602061267e85828601612460565b9150509250929050565b6000806040838503121561269b57600080fd5b60006126a98582860161244b565b925050602083013567ffffffffffffffff8111156126c657600080fd5b6126d2858286016124de565b9150509250929050565b600080604083850312156126ef57600080fd5b60006126fd8582860161244b565b925050602061270e85828601612508565b9150509250929050565b60006020828403121561272a57600080fd5b600061273884828501612475565b91505092915050565b6000806040838503121561275457600080fd5b600061276285828601612475565b92505060206127738582860161244b565b9150509250929050565b60006020828403121561278f57600080fd5b600061279d8482850161248a565b91505092915050565b6000602082840312156127b857600080fd5b60006127c68482850161249f565b91505092915050565b6000602082840312156127e157600080fd5b60006127ef84828501612508565b91505092915050565b6128018161354c565b82525050565b6128108161355e565b82525050565b61281f8161356a565b82525050565b6000612830826133f4565b61283a818561340a565b935061284a8185602086016135d9565b6128538161379e565b840191505092915050565b6000612869826133ff565b612873818561341b565b93506128838185602086016135d9565b61288c8161379e565b840191505092915050565b60006128a2826133ff565b6128ac818561342c565b93506128bc8185602086016135d9565b80840191505092915050565b60006128d560208361341b565b91507f537472696e67733a20686578206c656e67746820696e73756666696369656e746000830152602082019050919050565b600061291560328361341b565b91507f4552433732313a207472616e7366657220746f206e6f6e20455243373231526560008301527f63656976657220696d706c656d656e74657200000000000000000000000000006020830152604082019050919050565b600061297b601c8361341b565b91507f4552433732313a20746f6b656e20616c7265616479206d696e746564000000006000830152602082019050919050565b60006129bb60248361341b565b91507f4552433732313a207472616e7366657220746f20746865207a65726f2061646460008301527f72657373000000000000000000000000000000000000000000000000000000006020830152604082019050919050565b6000612a2160198361341b565b91507f4552433732313a20617070726f766520746f2063616c6c6572000000000000006000830152602082019050919050565b6000612a61602c8361341b565b91507f4552433732313a206f70657261746f7220717565727920666f72206e6f6e657860008301527f697374656e7420746f6b656e00000000000000000000000000000000000000006020830152604082019050919050565b6000612ac760388361341b565b91507f4552433732313a20617070726f76652063616c6c6572206973206e6f74206f7760008301527f6e6572206e6f7220617070726f76656420666f7220616c6c00000000000000006020830152604082019050919050565b6000612b2d602a8361341b565b91507f4552433732313a2062616c616e636520717565727920666f7220746865207a6560008301527f726f2061646472657373000000000000000000000000000000000000000000006020830152604082019050919050565b6000612b9360298361341b565b91507f4552433732313a206f776e657220717565727920666f72206e6f6e657869737460008301527f656e7420746f6b656e00000000000000000000000000000000000000000000006020830152604082019050919050565b6000612bf9602e8361341b565b91507f45524337323155524953746f726167653a2055524920736574206f66206e6f6e60008301527f6578697374656e7420746f6b656e0000000000000000000000000000000000006020830152604082019050919050565b6000612c5f60208361341b565b91507f4552433732313a206d696e7420746f20746865207a65726f20616464726573736000830152602082019050919050565b6000612c9f60318361341b565b91507f45524337323155524953746f726167653a2055524920717565727920666f722060008301527f6e6f6e6578697374656e7420746f6b656e0000000000000000000000000000006020830152604082019050919050565b6000612d05602c8361341b565b91507f4552433732313a20617070726f76656420717565727920666f72206e6f6e657860008301527f697374656e7420746f6b656e00000000000000000000000000000000000000006020830152604082019050919050565b6000612d6b60298361341b565b91507f4552433732313a207472616e73666572206f6620746f6b656e2074686174206960008301527f73206e6f74206f776e00000000000000000000000000000000000000000000006020830152604082019050919050565b6000612dd1602f8361341b565b91507f4552433732314d657461646174613a2055524920717565727920666f72206e6f60008301527f6e6578697374656e7420746f6b656e00000000000000000000000000000000006020830152604082019050919050565b6000612e3760218361341b565b91507f4552433732313a20617070726f76616c20746f2063757272656e74206f776e6560008301527f72000000000000000000000000000000000000000000000000000000000000006020830152604082019050919050565b6000612e9d60318361341b565b91507f4552433732313a207472616e736665722063616c6c6572206973206e6f74206f60008301527f776e6572206e6f7220617070726f7665640000000000000000000000000000006020830152604082019050919050565b6000612f0360178361342c565b91507f416363657373436f6e74726f6c3a206163636f756e74200000000000000000006000830152601782019050919050565b6000612f4360118361342c565b91507f206973206d697373696e6720726f6c65200000000000000000000000000000006000830152601182019050919050565b6000612f83602f8361341b565b91507f416363657373436f6e74726f6c3a2063616e206f6e6c792072656e6f756e636560008301527f20726f6c657320666f722073656c6600000000000000000000000000000000006020830152604082019050919050565b612fe5816135c0565b82525050565b6000612ff78285612897565b91506130038284612897565b91508190509392505050565b600061301a82612ef6565b91506130268285612897565b915061303182612f36565b915061303d8284612897565b91508190509392505050565b600060208201905061305e60008301846127f8565b92915050565b600060808201905061307960008301876127f8565b61308660208301866127f8565b6130936040830185612fdc565b81810360608301526130a58184612825565b905095945050505050565b60006020820190506130c56000830184612807565b92915050565b60006020820190506130e06000830184612816565b92915050565b60006020820190508181036000830152613100818461285e565b905092915050565b60006020820190508181036000830152613121816128c8565b9050919050565b6000602082019050818103600083015261314181612908565b9050919050565b600060208201905081810360008301526131618161296e565b9050919050565b60006020820190508181036000830152613181816129ae565b9050919050565b600060208201905081810360008301526131a181612a14565b9050919050565b600060208201905081810360008301526131c181612a54565b9050919050565b600060208201905081810360008301526131e181612aba565b9050919050565b6000602082019050818103600083015261320181612b20565b9050919050565b6000602082019050818103600083015261322181612b86565b9050919050565b6000602082019050818103600083015261324181612bec565b9050919050565b6000602082019050818103600083015261326181612c52565b9050919050565b6000602082019050818103600083015261328181612c92565b9050919050565b600060208201905081810360008301526132a181612cf8565b9050919050565b600060208201905081810360008301526132c181612d5e565b9050919050565b600060208201905081810360008301526132e181612dc4565b9050919050565b6000602082019050818103600083015261330181612e2a565b9050919050565b6000602082019050818103600083015261332181612e90565b9050919050565b6000602082019050818103600083015261334181612f76565b9050919050565b600060208201905061335d6000830184612fdc565b92915050565b6000604051905081810181811067ffffffffffffffff8211171561338a5761338961376f565b5b8060405250919050565b600067ffffffffffffffff8211156133af576133ae61376f565b5b601f19601f8301169050602081019050919050565b600067ffffffffffffffff8211156133df576133de61376f565b5b601f19601f8301169050602081019050919050565b600081519050919050565b600081519050919050565b600082825260208201905092915050565b600082825260208201905092915050565b600081905092915050565b6000613442826135c0565b915061344d836135c0565b9250827fffffffffffffffffffffffffffffffffffffffffffffffffffffffffffffffff03821115613482576134816136e2565b5b828201905092915050565b6000613498826135c0565b91506134a3836135c0565b9250826134b3576134b2613711565b5b828204905092915050565b60006134c9826135c0565b91506134d4836135c0565b9250817fffffffffffffffffffffffffffffffffffffffffffffffffffffffffffffffff048311821515161561350d5761350c6136e2565b5b828202905092915050565b6000613523826135c0565b915061352e836135c0565b925082821015613541576135406136e2565b5b828203905092915050565b6000613557826135a0565b9050919050565b60008115159050919050565b6000819050919050565b60007fffffffff0000000000000000000000000000000000000000000000000000000082169050919050565b600073ffffffffffffffffffffffffffffffffffffffff82169050919050565b6000819050919050565b82818337600083830152505050565b60005b838110156135f75780820151818401526020810190506135dc565b83811115613606576000848401525b50505050565b6000613617826135c0565b9150600082141561362b5761362a6136e2565b5b600182039050919050565b6000600282049050600182168061364e57607f821691505b6020821081141561366257613661613740565b5b50919050565b6000613673826135c0565b91507fffffffffffffffffffffffffffffffffffffffffffffffffffffffffffffffff8214156136a6576136a56136e2565b5b600182019050919050565b60006136bc826135c0565b91506136c7836135c0565b9250826136d7576136d6613711565b5b828206905092915050565b7f4e487b7100000000000000000000000000000000000000000000000000000000600052601160045260246000fd5b7f4e487b7100000000000000000000000000000000000000000000000000000000600052601260045260246000fd5b7f4e487b7100000000000000000000000000000000000000000000000000000000600052602260045260246000fd5b7f4e487b7100000000000000000000000000000000000000000000000000000000600052604160045260246000fd5b6000601f19601f8301169050919050565b6137b88161354c565b81146137c357600080fd5b50565b6137cf8161355e565b81146137da57600080fd5b50565b6137e68161356a565b81146137f157600080fd5b50565b6137fd81613574565b811461380857600080fd5b50565b613814816135c0565b811461381f57600080fd5b5056fea26469706673582212207e31920ffc1e4b4fbc9b8c6b7b73f3f01dc863bb68de7ec19f85aef8f6dcdcbc64736f6c63430008000033",
  "immutableReferences": {},
  "source": "pragma solidity 0.8.0;\n\nimport \"@openzeppelin/contracts/token/ERC721/extensions/ERC721URIStorage.sol\";\nimport \"@openzeppelin/contracts/utils/Counters.sol\";\nimport \"@openzeppelin/contracts/access/AccessControl.sol\";\n\ncontract BizverseNFT is ERC721URIStorage, AccessControl {\n    using Counters for Counters.Counter;\n    Counters.Counter private _tokenIds;\n    bytes32 public constant MINTER_ROLE = keccak256(\"MINTER_ROLE\");\n\n    constructor(\n        string memory name,\n        string memory symbol,\n        address defaultMinter\n    ) ERC721(name, symbol) {\n        _setupRole(MINTER_ROLE, defaultMinter);\n        _setupRole(DEFAULT_ADMIN_ROLE, msg.sender);\n    }\n\n    function mint(address _to, string memory _tokenURI)\n        public\n        onlyRole(MINTER_ROLE)\n        returns (uint256)\n    {\n        _tokenIds.increment();\n        uint256 newTokenId = _tokenIds.current();\n        _mint(_to, newTokenId);\n        _setTokenURI(newTokenId, _tokenURI);\n        return newTokenId;\n    }\n\n    function burn(uint256 tokenId)\n        public\n        onlyRole(DEFAULT_ADMIN_ROLE)\n        returns (bool)\n    {\n        _burn(tokenId);\n        return true;\n    }\n\n    function supportsInterface(bytes4 interfaceId)\n        public\n        view\n        virtual\n        override(ERC721, AccessControl)\n        returns (bool)\n    {\n        return super.supportsInterface(interfaceId);\n    }\n}\n",
  "sourcePath": "/home/thong/Workspace/solidity/bizverse-world/contracts/BizverseNFT.sol",
  "compiler": {
    "name": "solc",
    "version": "0.8.0+commit.c7dfd78e.Emscripten.clang"
  },
  "schemaVersion": "3.4.3",
  "updatedAt": "2021-11-29T09:28:44.335Z",
  "devdoc": {
    "kind": "dev",
    "methods": {
      "approve(address,uint256)": {
        "details": "See {IERC721-approve}."
      },
      "balanceOf(address)": {
        "details": "See {IERC721-balanceOf}."
      },
      "getApproved(uint256)": {
        "details": "See {IERC721-getApproved}."
      },
      "getRoleAdmin(bytes32)": {
        "details": "Returns the admin role that controls `role`. See {grantRole} and {revokeRole}. To change a role's admin, use {_setRoleAdmin}."
      },
      "grantRole(bytes32,address)": {
        "details": "Grants `role` to `account`. If `account` had not been already granted `role`, emits a {RoleGranted} event. Requirements: - the caller must have ``role``'s admin role."
      },
      "hasRole(bytes32,address)": {
        "details": "Returns `true` if `account` has been granted `role`."
      },
      "isApprovedForAll(address,address)": {
        "details": "See {IERC721-isApprovedForAll}."
      },
      "name()": {
        "details": "See {IERC721Metadata-name}."
      },
      "ownerOf(uint256)": {
        "details": "See {IERC721-ownerOf}."
      },
      "renounceRole(bytes32,address)": {
        "details": "Revokes `role` from the calling account. Roles are often managed via {grantRole} and {revokeRole}: this function's purpose is to provide a mechanism for accounts to lose their privileges if they are compromised (such as when a trusted device is misplaced). If the calling account had been granted `role`, emits a {RoleRevoked} event. Requirements: - the caller must be `account`."
      },
      "revokeRole(bytes32,address)": {
        "details": "Revokes `role` from `account`. If `account` had been granted `role`, emits a {RoleRevoked} event. Requirements: - the caller must have ``role``'s admin role."
      },
      "safeTransferFrom(address,address,uint256)": {
        "details": "See {IERC721-safeTransferFrom}."
      },
      "safeTransferFrom(address,address,uint256,bytes)": {
        "details": "See {IERC721-safeTransferFrom}."
      },
      "setApprovalForAll(address,bool)": {
        "details": "See {IERC721-setApprovalForAll}."
      },
      "symbol()": {
        "details": "See {IERC721Metadata-symbol}."
      },
      "tokenURI(uint256)": {
        "details": "See {IERC721Metadata-tokenURI}."
      },
      "transferFrom(address,address,uint256)": {
        "details": "See {IERC721-transferFrom}."
      }
    },
    "version": 1
  },
  "userdoc": {
    "kind": "user",
    "methods": {},
    "version": 1
  }
}