{
  "contractName": "Marketplace",
  "abi": [
    {
      "inputs": [
        {
          "internalType": "contract IERC20",
          "name": "_token",
          "type": "address"
        },
        {
          "internalType": "uint16",
          "name": "_listingFee",
          "type": "uint16"
        }
      ],
      "stateMutability": "nonpayable",
      "type": "constructor"
    },
    {
      "anonymous": false,
      "inputs": [
        {
          "indexed": false,
          "internalType": "uint256",
          "name": "fee",
          "type": "uint256"
        }
      ],
      "name": "ChangeListingFee",
      "type": "event"
    },
    {
      "anonymous": false,
      "inputs": [
        {
          "indexed": true,
          "internalType": "uint256",
          "name": "offerId",
          "type": "uint256"
        }
      ],
      "name": "OfferClosed",
      "type": "event"
    },
    {
      "anonymous": false,
      "inputs": [
        {
          "indexed": true,
          "internalType": "uint256",
          "name": "offerId",
          "type": "uint256"
        },
        {
          "indexed": true,
          "internalType": "contract IERC721",
          "name": "hostContract",
          "type": "address"
        },
        {
          "indexed": true,
          "internalType": "uint256",
          "name": "tokenId",
          "type": "uint256"
        },
        {
          "indexed": false,
          "internalType": "address",
          "name": "seller",
          "type": "address"
        },
        {
          "indexed": false,
          "internalType": "uint256",
          "name": "price",
          "type": "uint256"
        },
        {
          "indexed": false,
          "internalType": "bool",
          "name": "closed",
          "type": "bool"
        }
      ],
      "name": "OfferCreated",
      "type": "event"
    },
    {
      "anonymous": false,
      "inputs": [
        {
          "indexed": true,
          "internalType": "uint256",
          "name": "offerId",
          "type": "uint256"
        },
        {
          "indexed": false,
          "internalType": "uint256",
          "name": "newPrice",
          "type": "uint256"
        }
      ],
      "name": "OfferPriceChanged",
      "type": "event"
    },
    {
      "anonymous": false,
      "inputs": [
        {
          "indexed": true,
          "internalType": "address",
          "name": "previousOwner",
          "type": "address"
        },
        {
          "indexed": true,
          "internalType": "address",
          "name": "newOwner",
          "type": "address"
        }
      ],
      "name": "OwnershipTransferred",
      "type": "event"
    },
    {
      "anonymous": false,
      "inputs": [
        {
          "indexed": true,
          "internalType": "address",
          "name": "from",
          "type": "address"
        },
        {
          "indexed": true,
          "internalType": "uint256",
          "name": "amount",
          "type": "uint256"
        }
      ],
      "name": "Receive",
      "type": "event"
    },
    {
      "inputs": [],
      "name": "listingFee",
      "outputs": [
        {
          "internalType": "uint16",
          "name": "",
          "type": "uint16"
        }
      ],
      "stateMutability": "view",
      "type": "function"
    },
    {
      "inputs": [],
      "name": "owner",
      "outputs": [
        {
          "internalType": "address",
          "name": "",
          "type": "address"
        }
      ],
      "stateMutability": "view",
      "type": "function"
    },
    {
      "inputs": [],
      "name": "renounceOwnership",
      "outputs": [],
      "stateMutability": "nonpayable",
      "type": "function"
    },
    {
      "inputs": [],
      "name": "token",
      "outputs": [
        {
          "internalType": "contract IERC20",
          "name": "",
          "type": "address"
        }
      ],
      "stateMutability": "view",
      "type": "function"
    },
    {
      "inputs": [
        {
          "internalType": "address",
          "name": "newOwner",
          "type": "address"
        }
      ],
      "name": "transferOwnership",
      "outputs": [],
      "stateMutability": "nonpayable",
      "type": "function"
    },
    {
      "stateMutability": "payable",
      "type": "receive"
    },
    {
      "inputs": [
        {
          "internalType": "uint16",
          "name": "fee",
          "type": "uint16"
        }
      ],
      "name": "changeListingFee",
      "outputs": [],
      "stateMutability": "nonpayable",
      "type": "function"
    },
    {
      "inputs": [
        {
          "internalType": "contract IERC721",
          "name": "hostContract",
          "type": "address"
        },
        {
          "internalType": "uint256",
          "name": "tokenId",
          "type": "uint256"
        },
        {
          "internalType": "uint256",
          "name": "price",
          "type": "uint256"
        }
      ],
      "name": "offer",
      "outputs": [
        {
          "internalType": "bool",
          "name": "",
          "type": "bool"
        }
      ],
      "stateMutability": "nonpayable",
      "type": "function"
    },
    {
      "inputs": [
        {
          "internalType": "uint256",
          "name": "offerId",
          "type": "uint256"
        }
      ],
      "name": "cancel",
      "outputs": [
        {
          "internalType": "bool",
          "name": "",
          "type": "bool"
        }
      ],
      "stateMutability": "nonpayable",
      "type": "function"
    },
    {
      "inputs": [
        {
          "internalType": "uint256",
          "name": "offerId",
          "type": "uint256"
        },
        {
          "internalType": "uint256",
          "name": "newPrice",
          "type": "uint256"
        }
      ],
      "name": "changePrice",
      "outputs": [
        {
          "internalType": "bool",
          "name": "",
          "type": "bool"
        }
      ],
      "stateMutability": "nonpayable",
      "type": "function"
    },
    {
      "inputs": [
        {
          "internalType": "uint256",
          "name": "offerId",
          "type": "uint256"
        }
      ],
      "name": "buy",
      "outputs": [
        {
          "internalType": "bool",
          "name": "",
          "type": "bool"
        }
      ],
      "stateMutability": "nonpayable",
      "type": "function"
    },
    {
      "inputs": [
        {
          "internalType": "uint256",
          "name": "amount",
          "type": "uint256"
        }
      ],
      "name": "calculateFee",
      "outputs": [
        {
          "internalType": "uint256",
          "name": "",
          "type": "uint256"
        }
      ],
      "stateMutability": "view",
      "type": "function"
    },
    {
      "inputs": [],
      "name": "withdraw",
      "outputs": [
        {
          "internalType": "bool",
          "name": "",
          "type": "bool"
        }
      ],
      "stateMutability": "nonpayable",
      "type": "function"
    },
    {
      "inputs": [],
      "name": "total",
      "outputs": [
        {
          "internalType": "uint256",
          "name": "",
          "type": "uint256"
        }
      ],
      "stateMutability": "view",
      "type": "function"
    },
    {
      "inputs": [],
      "name": "openning",
      "outputs": [
        {
          "internalType": "uint256",
          "name": "",
          "type": "uint256"
        }
      ],
      "stateMutability": "view",
      "type": "function"
    },
    {
      "inputs": [],
      "name": "getOpeningOffersId",
      "outputs": [
        {
          "internalType": "uint256[]",
          "name": "",
          "type": "uint256[]"
        }
      ],
      "stateMutability": "view",
      "type": "function"
    },
    {
      "inputs": [
        {
          "internalType": "uint256",
          "name": "offerId",
          "type": "uint256"
        }
      ],
      "name": "getOffer",
      "outputs": [
        {
          "components": [
            {
              "internalType": "uint256",
              "name": "offerId",
              "type": "uint256"
            },
            {
              "internalType": "contract IERC721",
              "name": "hostContract",
              "type": "address"
            },
            {
              "internalType": "uint256",
              "name": "tokenId",
              "type": "uint256"
            },
            {
              "internalType": "address",
              "name": "seller",
              "type": "address"
            },
            {
              "internalType": "uint256",
              "name": "price",
              "type": "uint256"
            },
            {
              "internalType": "bool",
              "name": "closed",
              "type": "bool"
            }
          ],
          "internalType": "struct Marketplace.Offer",
          "name": "",
          "type": "tuple"
        }
      ],
      "stateMutability": "view",
      "type": "function"
    },
    {
      "inputs": [
        {
          "internalType": "address",
          "name": "seller",
          "type": "address"
        }
      ],
      "name": "getOfferIdBySeller",
      "outputs": [
        {
          "internalType": "uint256[]",
          "name": "",
          "type": "uint256[]"
        }
      ],
      "stateMutability": "view",
      "type": "function"
    }
  ],
  "bytecode": "0x60a06040523480156200001157600080fd5b50604051620029f3380380620029f38339818101604052810190620000379190620001b7565b60016000819055506200005f62000053620000bb60201b60201c565b620000c360201b60201c565b8173ffffffffffffffffffffffffffffffffffffffff1660808173ffffffffffffffffffffffffffffffffffffffff1660601b8152505080600460006101000a81548161ffff021916908361ffff160217905550505062000282565b600033905090565b6000600160009054906101000a900473ffffffffffffffffffffffffffffffffffffffff16905081600160006101000a81548173ffffffffffffffffffffffffffffffffffffffff021916908373ffffffffffffffffffffffffffffffffffffffff1602179055508173ffffffffffffffffffffffffffffffffffffffff168173ffffffffffffffffffffffffffffffffffffffff167f8be0079c531659141344cd1fd0a4f28419497f9722a3daafe3b4186f6b6457e060405160405180910390a35050565b6000815190506200019a816200024e565b92915050565b600081519050620001b18162000268565b92915050565b60008060408385031215620001cb57600080fd5b6000620001db8582860162000189565b9250506020620001ee85828601620001a0565b9150509250929050565b600062000205826200022e565b9050919050565b60006200021982620001f8565b9050919050565b600061ffff82169050919050565b600073ffffffffffffffffffffffffffffffffffffffff82169050919050565b62000259816200020c565b81146200026557600080fd5b50565b620002738162000220565b81146200027f57600080fd5b50565b60805160601c612744620002af600039600081816114280152818161170c015261199b01526127446000f3fe6080604052600436106101025760003560e01c806374a4605011610095578063b3de019c11610064578063b3de019c146103a3578063d96a094a146103e0578063f2fde38b1461041d578063fc0c546a14610446578063fc6a5c691461047157610154565b806374a46050146102c15780638da5cb5b146102fe57806397443e591461032957806399a5d7471461036657610154565b806340e58ee5116100d157806340e58ee5146102055780634579268a146102425780636a1b7ecc1461027f578063715018a6146102aa57610154565b806301b7c848146101595780632ddbd13a146101845780633ccfd60b146101af5780633d57b608146101da57610154565b36610154573461011061049a565b73ffffffffffffffffffffffffffffffffffffffff167fd6717f327e0cb88b4a97a7f67a453e9258252c34937ccbdd86de7cb840e7def360405160405180910390a3005b600080fd5b34801561016557600080fd5b5061016e6104a2565b60405161017b9190612203565b60405180910390f35b34801561019057600080fd5b506101996105f2565b6040516101a691906123ec565b60405180910390f35b3480156101bb57600080fd5b506101c4610603565b6040516101d19190612225565b60405180910390f35b3480156101e657600080fd5b506101ef6106dc565b6040516101fc91906123ec565b60405180910390f35b34801561021157600080fd5b5061022c60048036038101906102279190611c76565b6106ed565b6040516102399190612225565b60405180910390f35b34801561024e57600080fd5b5061026960048036038101906102649190611c76565b6109a7565b604051610276919061239b565b60405180910390f35b34801561028b57600080fd5b50610294610abf565b6040516102a191906123b6565b60405180910390f35b3480156102b657600080fd5b506102bf610ad3565b005b3480156102cd57600080fd5b506102e860048036038101906102e39190611bfe565b610b5b565b6040516102f59190612225565b60405180910390f35b34801561030a57600080fd5b50610313610e44565b604051610320919061217a565b60405180910390f35b34801561033557600080fd5b50610350600480360381019061034b9190611bac565b610e6e565b60405161035d9190612203565b60405180910390f35b34801561037257600080fd5b5061038d60048036038101906103889190611c76565b61109a565b60405161039a91906123ec565b60405180910390f35b3480156103af57600080fd5b506103ca60048036038101906103c59190611c9f565b6110de565b6040516103d79190612225565b60405180910390f35b3480156103ec57600080fd5b5061040760048036038101906104029190611c76565b6112b8565b6040516104149190612225565b60405180910390f35b34801561042957600080fd5b50610444600480360381019061043f9190611bac565b611612565b005b34801561045257600080fd5b5061045b61170a565b6040516104689190612240565b60405180910390f35b34801561047d57600080fd5b5061049860048036038101906104939190611c4d565b61172e565b005b600033905090565b606060006104b0600261185a565b905060006104be600361185a565b90506000808267ffffffffffffffff811115610503577f4e487b7100000000000000000000000000000000000000000000000000000000600052604160045260246000fd5b6040519080825280602002602001820160405280156105315781602001602082028036833780820191505090505b50905060005b848110156105e757600560006001836105509190612451565b815260200190815260200160002060050160009054906101000a900460ff166105d4576001816105809190612451565b8284815181106105b9577f4e487b7100000000000000000000000000000000000000000000000000000000600052603260045260246000fd5b60200260200101818152505082806105d0906125f4565b9350505b80806105df906125f4565b915050610537565b508094505050505090565b60006105fe600261185a565b905090565b600061060d61049a565b73ffffffffffffffffffffffffffffffffffffffff1661062b610e44565b73ffffffffffffffffffffffffffffffffffffffff1614610681576040517f08c379a00000000000000000000000000000000000000000000000000000000081526004016106789061231b565b60405180910390fd5b600047905061068e610e44565b73ffffffffffffffffffffffffffffffffffffffff166108fc829081150290604051600060405180830381858888f193505050501580156106d3573d6000803e3d6000fd5b50600191505090565b60006106e8600361185a565b905090565b600060026000541415610735576040517f08c379a000000000000000000000000000000000000000000000000000000000815260040161072c9061237b565b60405180910390fd5b60026000819055508160006005600083815260200190815260200160002060030160009054906101000a900473ffffffffffffffffffffffffffffffffffffffff16905061078161049a565b73ffffffffffffffffffffffffffffffffffffffff168173ffffffffffffffffffffffffffffffffffffffff16146107ee576040517f08c379a00000000000000000000000000000000000000000000000000000000081526004016107e5906122db565b60405180910390fd5b8360006005600083815260200190815260200160002060050160009054906101000a900460ff169050600015158115151461085e576040517f08c379a00000000000000000000000000000000000000000000000000000000081526004016108559061233b565b60405180910390fd5b60016005600088815260200190815260200160002060050160006101000a81548160ff0219169083151502179055506108976003611868565b60006005600088815260200190815260200160002060020154905060006005600089815260200190815260200160002060010160009054906101000a900473ffffffffffffffffffffffffffffffffffffffff1690508073ffffffffffffffffffffffffffffffffffffffff166323b872dd3061091261049a565b856040518463ffffffff1660e01b815260040161093193929190612195565b600060405180830381600087803b15801561094b57600080fd5b505af115801561095f573d6000803e3d6000fd5b50505050877f7bd20b1b32067a0be5e6f9e0636e6466bf8ba601866f82e7a3b4a8d0792c0eb260405160405180910390a2600196505050505050506001600081905550919050565b6109af611adf565b6000600560008481526020019081526020016000206040518060c0016040529081600082015481526020016001820160009054906101000a900473ffffffffffffffffffffffffffffffffffffffff1673ffffffffffffffffffffffffffffffffffffffff1673ffffffffffffffffffffffffffffffffffffffff168152602001600282015481526020016003820160009054906101000a900473ffffffffffffffffffffffffffffffffffffffff1673ffffffffffffffffffffffffffffffffffffffff1673ffffffffffffffffffffffffffffffffffffffff168152602001600482015481526020016005820160009054906101000a900460ff161515151581525050905080915050919050565b600460009054906101000a900461ffff1681565b610adb61049a565b73ffffffffffffffffffffffffffffffffffffffff16610af9610e44565b73ffffffffffffffffffffffffffffffffffffffff1614610b4f576040517f08c379a0000000000000000000000000000000000000000000000000000000008152600401610b469061231b565b60405180910390fd5b610b5960006118c4565b565b600060026000541415610ba3576040517f08c379a0000000000000000000000000000000000000000000000000000000008152600401610b9a9061237b565b60405180910390fd5b600260008190555060008211610bee576040517f08c379a0000000000000000000000000000000000000000000000000000000008152600401610be59061235b565b60405180910390fd5b610bf78261198a565b8373ffffffffffffffffffffffffffffffffffffffff166323b872dd610c1b61049a565b30866040518463ffffffff1660e01b8152600401610c3b93929190612195565b600060405180830381600087803b158015610c5557600080fd5b505af1158015610c69573d6000803e3d6000fd5b50505050610c776002611a9d565b610c816003611a9d565b6000610c8d600261185a565b90506040518060c001604052808281526020018673ffffffffffffffffffffffffffffffffffffffff168152602001858152602001610cca61049a565b73ffffffffffffffffffffffffffffffffffffffff16815260200184815260200160001515815250600560008381526020019081526020016000206000820151816000015560208201518160010160006101000a81548173ffffffffffffffffffffffffffffffffffffffff021916908373ffffffffffffffffffffffffffffffffffffffff1602179055506040820151816002015560608201518160030160006101000a81548173ffffffffffffffffffffffffffffffffffffffff021916908373ffffffffffffffffffffffffffffffffffffffff1602179055506080820151816004015560a08201518160050160006101000a81548160ff021916908315150217905550905050838573ffffffffffffffffffffffffffffffffffffffff16827f4b7aa48933f878986340ac6ba0a7cfb894cbed4fa044fafb29c5d1dc76ecd82d610e1661049a565b876000604051610e28939291906121cc565b60405180910390a4600191505060016000819055509392505050565b6000600160009054906101000a900473ffffffffffffffffffffffffffffffffffffffff16905090565b60606000610e7c600261185a565b905060008060005b83811015610f24578573ffffffffffffffffffffffffffffffffffffffff1660056000600184610eb49190612451565b815260200190815260200160002060030160009054906101000a900473ffffffffffffffffffffffffffffffffffffffff1673ffffffffffffffffffffffffffffffffffffffff161415610f11578280610f0d906125f4565b9350505b8080610f1c906125f4565b915050610e84565b5060008267ffffffffffffffff811115610f67577f4e487b7100000000000000000000000000000000000000000000000000000000600052604160045260246000fd5b604051908082528060200260200182016040528015610f955781602001602082028036833780820191505090505b50905060005b8381101561108d578673ffffffffffffffffffffffffffffffffffffffff1660056000600184610fcb9190612451565b815260200190815260200160002060030160009054906101000a900473ffffffffffffffffffffffffffffffffffffffff1673ffffffffffffffffffffffffffffffffffffffff16141561107a576001816110269190612451565b82848151811061105f577f4e487b7100000000000000000000000000000000000000000000000000000000600052603260045260246000fd5b6020026020010181815250508280611076906125f4565b9350505b8080611085906125f4565b915050610f9b565b5080945050505050919050565b60006110d76127106110c9600460009054906101000a900461ffff1661ffff1685611ab390919063ffffffff16565b611ac990919063ffffffff16565b9050919050565b600060026000541415611126576040517f08c379a000000000000000000000000000000000000000000000000000000000815260040161111d9061237b565b60405180910390fd5b60026000819055508260006005600083815260200190815260200160002060030160009054906101000a900473ffffffffffffffffffffffffffffffffffffffff16905061117261049a565b73ffffffffffffffffffffffffffffffffffffffff168173ffffffffffffffffffffffffffffffffffffffff16146111df576040517f08c379a00000000000000000000000000000000000000000000000000000000081526004016111d6906122db565b60405180910390fd5b8460006005600083815260200190815260200160002060050160009054906101000a900460ff169050600015158115151461124f576040517f08c379a00000000000000000000000000000000000000000000000000000000081526004016112469061233b565b60405180910390fd5b856005600089815260200190815260200160002060040181905550867f4fc41712e825807740fbb87fb35ee2daae5f94d1092db5328f8f16e3c7c9fa3c8760405161129a91906123ec565b60405180910390a26001945050505050600160008190555092915050565b600060026000541415611300576040517f08c379a00000000000000000000000000000000000000000000000000000000081526004016112f79061237b565b60405180910390fd5b60026000819055508160006005600083815260200190815260200160002060050160009054906101000a900460ff1690506000151581151514611378576040517f08c379a000000000000000000000000000000000000000000000000000000000815260040161136f9061233b565b60405180910390fd5b60006005600086815260200190815260200160002060040154905060006005600087815260200190815260200160002060020154905060006005600088815260200190815260200160002060030160009054906101000a900473ffffffffffffffffffffffffffffffffffffffff16905060006005600089815260200190815260200160002060010160009054906101000a900473ffffffffffffffffffffffffffffffffffffffff16905060007f000000000000000000000000000000000000000000000000000000000000000073ffffffffffffffffffffffffffffffffffffffff166323b872dd61146a61049a565b85886040518463ffffffff1660e01b815260040161148a93929190612195565b602060405180830381600087803b1580156114a457600080fd5b505af11580156114b8573d6000803e3d6000fd5b505050506040513d601f19601f820116820180604052508101906114dc9190611bd5565b90508061151e576040517f08c379a0000000000000000000000000000000000000000000000000000000008152600401611515906122bb565b60405180910390fd5b8173ffffffffffffffffffffffffffffffffffffffff166323b872dd3061154361049a565b876040518463ffffffff1660e01b815260040161156293929190612195565b600060405180830381600087803b15801561157c57600080fd5b505af1158015611590573d6000803e3d6000fd5b505050506001600560008b815260200190815260200160002060050160006101000a81548160ff0219169083151502179055506115cd6003611868565b887f7bd20b1b32067a0be5e6f9e0636e6466bf8ba601866f82e7a3b4a8d0792c0eb260405160405180910390a260019750505050505050506001600081905550919050565b61161a61049a565b73ffffffffffffffffffffffffffffffffffffffff16611638610e44565b73ffffffffffffffffffffffffffffffffffffffff161461168e576040517f08c379a00000000000000000000000000000000000000000000000000000000081526004016116859061231b565b60405180910390fd5b600073ffffffffffffffffffffffffffffffffffffffff168173ffffffffffffffffffffffffffffffffffffffff1614156116fe576040517f08c379a00000000000000000000000000000000000000000000000000000000081526004016116f59061229b565b60405180910390fd5b611707816118c4565b50565b7f000000000000000000000000000000000000000000000000000000000000000081565b61173661049a565b73ffffffffffffffffffffffffffffffffffffffff16611754610e44565b73ffffffffffffffffffffffffffffffffffffffff16146117aa576040517f08c379a00000000000000000000000000000000000000000000000000000000081526004016117a19061231b565b60405180910390fd5b610bb88161ffff1611156117f3576040517f08c379a00000000000000000000000000000000000000000000000000000000081526004016117ea9061227b565b60405180910390fd5b80600460006101000a81548161ffff021916908361ffff1602179055507f0aee580514d9add323ebf45c5dc151b81e2f6fac5aeb1fcd0eed54d2174e6cc5600460009054906101000a900461ffff1660405161184f91906123d1565b60405180910390a150565b600081600001549050919050565b600081600001549050600081116118b4576040517f08c379a00000000000000000000000000000000000000000000000000000000081526004016118ab9061225b565b60405180910390fd5b6001810382600001819055505050565b6000600160009054906101000a900473ffffffffffffffffffffffffffffffffffffffff16905081600160006101000a81548173ffffffffffffffffffffffffffffffffffffffff021916908373ffffffffffffffffffffffffffffffffffffffff1602179055508173ffffffffffffffffffffffffffffffffffffffff168173ffffffffffffffffffffffffffffffffffffffff167f8be0079c531659141344cd1fd0a4f28419497f9722a3daafe3b4186f6b6457e060405160405180910390a35050565b60006119958261109a565b905060007f000000000000000000000000000000000000000000000000000000000000000073ffffffffffffffffffffffffffffffffffffffff166323b872dd6119dd61049a565b6119e5610e44565b856040518463ffffffff1660e01b8152600401611a0493929190612195565b602060405180830381600087803b158015611a1e57600080fd5b505af1158015611a32573d6000803e3d6000fd5b505050506040513d601f19601f82011682018060405250810190611a569190611bd5565b905080611a98576040517f08c379a0000000000000000000000000000000000000000000000000000000008152600401611a8f906122fb565b60405180910390fd5b505050565b6001816000016000828254019250508190555050565b60008183611ac191906124d8565b905092915050565b60008183611ad791906124a7565b905092915050565b6040518060c0016040528060008152602001600073ffffffffffffffffffffffffffffffffffffffff16815260200160008152602001600073ffffffffffffffffffffffffffffffffffffffff168152602001600081526020016000151581525090565b600081359050611b528161269b565b92915050565b600081519050611b67816126b2565b92915050565b600081359050611b7c816126c9565b92915050565b600081359050611b91816126e0565b92915050565b600081359050611ba6816126f7565b92915050565b600060208284031215611bbe57600080fd5b6000611bcc84828501611b43565b91505092915050565b600060208284031215611be757600080fd5b6000611bf584828501611b58565b91505092915050565b600080600060608486031215611c1357600080fd5b6000611c2186828701611b6d565b9350506020611c3286828701611b97565b9250506040611c4386828701611b97565b9150509250925092565b600060208284031215611c5f57600080fd5b6000611c6d84828501611b82565b91505092915050565b600060208284031215611c8857600080fd5b6000611c9684828501611b97565b91505092915050565b60008060408385031215611cb257600080fd5b6000611cc085828601611b97565b9250506020611cd185828601611b97565b9150509250929050565b6000611ce7838361215c565b60208301905092915050565b611cfc81612532565b82525050565b611d0b81612532565b82525050565b6000611d1c82612417565b611d26818561242f565b9350611d3183612407565b8060005b83811015611d62578151611d498882611cdb565b9750611d5483612422565b925050600181019050611d35565b5085935050505092915050565b611d7881612544565b82525050565b611d8781612544565b82525050565b611d968161259a565b82525050565b611da5816125be565b82525050565b6000611db8601b83612440565b91507f436f756e7465723a2064656372656d656e74206f766572666c6f7700000000006000830152602082019050919050565b6000611df8602283612440565b91507f466565206d757374206c657373207468616e206f7220657175616c20746f203360008301527f30250000000000000000000000000000000000000000000000000000000000006020830152604082019050919050565b6000611e5e602683612440565b91507f4f776e61626c653a206e6577206f776e657220697320746865207a65726f206160008301527f64647265737300000000000000000000000000000000000000000000000000006020830152604082019050919050565b6000611ec4603083612440565b91507f4d61726b6574706c6163653a2043616e206e6f74207061792073656c6c65722060008301527f666f7220746865206f66666572696e67000000000000000000000000000000006020830152604082019050919050565b6000611f2a601383612440565b91507f4f6e6c792073656c6c657220616c6c6f776564000000000000000000000000006000830152602082019050919050565b6000611f6a603483612440565b91507f4d61726b6574706c6163653a2043616e206e6f7420706179206f776e6572206660008301527f6f7220746865206c697374696e672070726963650000000000000000000000006020830152604082019050919050565b6000611fd0602083612440565b91507f4f776e61626c653a2063616c6c6572206973206e6f7420746865206f776e65726000830152602082019050919050565b6000612010600c83612440565b91507f4f6666657220636c6f73656400000000000000000000000000000000000000006000830152602082019050919050565b6000612050601683612440565b91507f5072696365206d75737420626520706f736974697665000000000000000000006000830152602082019050919050565b6000612090601f83612440565b91507f5265656e7472616e637947756172643a207265656e7472616e742063616c6c006000830152602082019050919050565b60c0820160008201516120d9600085018261215c565b5060208201516120ec6020850182611d9c565b5060408201516120ff604085018261215c565b5060608201516121126060850182611cf3565b506080820151612125608085018261215c565b5060a082015161213860a0850182611d6f565b50505050565b61214781612562565b82525050565b612156816125e2565b82525050565b61216581612590565b82525050565b61217481612590565b82525050565b600060208201905061218f6000830184611d02565b92915050565b60006060820190506121aa6000830186611d02565b6121b76020830185611d02565b6121c4604083018461216b565b949350505050565b60006060820190506121e16000830186611d02565b6121ee602083018561216b565b6121fb6040830184611d7e565b949350505050565b6000602082019050818103600083015261221d8184611d11565b905092915050565b600060208201905061223a6000830184611d7e565b92915050565b60006020820190506122556000830184611d8d565b92915050565b6000602082019050818103600083015261227481611dab565b9050919050565b6000602082019050818103600083015261229481611deb565b9050919050565b600060208201905081810360008301526122b481611e51565b9050919050565b600060208201905081810360008301526122d481611eb7565b9050919050565b600060208201905081810360008301526122f481611f1d565b9050919050565b6000602082019050818103600083015261231481611f5d565b9050919050565b6000602082019050818103600083015261233481611fc3565b9050919050565b6000602082019050818103600083015261235481612003565b9050919050565b6000602082019050818103600083015261237481612043565b9050919050565b6000602082019050818103600083015261239481612083565b9050919050565b600060c0820190506123b060008301846120c3565b92915050565b60006020820190506123cb600083018461213e565b92915050565b60006020820190506123e6600083018461214d565b92915050565b6000602082019050612401600083018461216b565b92915050565b6000819050602082019050919050565b600081519050919050565b6000602082019050919050565b600082825260208201905092915050565b600082825260208201905092915050565b600061245c82612590565b915061246783612590565b9250827fffffffffffffffffffffffffffffffffffffffffffffffffffffffffffffffff0382111561249c5761249b61263d565b5b828201905092915050565b60006124b282612590565b91506124bd83612590565b9250826124cd576124cc61266c565b5b828204905092915050565b60006124e382612590565b91506124ee83612590565b9250817fffffffffffffffffffffffffffffffffffffffffffffffffffffffffffffffff04831182151516156125275761252661263d565b5b828202905092915050565b600061253d82612570565b9050919050565b60008115159050919050565b600061255b82612532565b9050919050565b600061ffff82169050919050565b600073ffffffffffffffffffffffffffffffffffffffff82169050919050565b6000819050919050565b60006125a5826125ac565b9050919050565b60006125b782612570565b9050919050565b60006125c9826125d0565b9050919050565b60006125db82612570565b9050919050565b60006125ed82612562565b9050919050565b60006125ff82612590565b91507fffffffffffffffffffffffffffffffffffffffffffffffffffffffffffffffff8214156126325761263161263d565b5b600182019050919050565b7f4e487b7100000000000000000000000000000000000000000000000000000000600052601160045260246000fd5b7f4e487b7100000000000000000000000000000000000000000000000000000000600052601260045260246000fd5b6126a481612532565b81146126af57600080fd5b50565b6126bb81612544565b81146126c657600080fd5b50565b6126d281612550565b81146126dd57600080fd5b50565b6126e981612562565b81146126f457600080fd5b50565b61270081612590565b811461270b57600080fd5b5056fea26469706673582212204c5919a9f170f37ebcbc33a9d7854bea6b45f2abe4cddebc8890cd57381340e064736f6c63430008000033",
  "immutableReferences": {
    "2966": [
      {
        "length": 32,
        "start": 5160
      },
      {
        "length": 32,
        "start": 5900
      },
      {
        "length": 32,
        "start": 6555
      }
    ]
  },
  "source": "pragma solidity 0.8.0;\n\nimport \"@openzeppelin/contracts/security/ReentrancyGuard.sol\";\nimport \"@openzeppelin/contracts/token/ERC721/IERC721.sol\";\nimport \"@openzeppelin/contracts/utils/Counters.sol\";\nimport \"@openzeppelin/contracts/token/ERC20/IERC20.sol\";\nimport \"@openzeppelin/contracts/access/Ownable.sol\";\nimport \"@openzeppelin/contracts/utils/math/SafeMath.sol\";\n\ncontract Marketplace is ReentrancyGuard, Ownable {\n    using Counters for Counters.Counter;\n    using SafeMath for uint256;\n    struct Offer {\n        uint256 offerId;\n        IERC721 hostContract;\n        uint256 tokenId;\n        address seller;\n        uint256 price;\n        bool closed;\n    }\n    Counters.Counter private _nonce;\n    Counters.Counter private _openning;\n    IERC20 public immutable token;\n\n    // fee in percent so that 100% is 10000\n    // initial fee is 3% => 300\n    uint16 public listingFee;\n    mapping(uint256 => Offer) private idToOffer;\n\n    event OfferCreated(\n        uint256 indexed offerId,\n        IERC721 indexed hostContract,\n        uint256 indexed tokenId,\n        address seller,\n        uint256 price,\n        bool closed\n    );\n    event OfferClosed(uint256 indexed offerId);\n    event OfferPriceChanged(uint256 indexed offerId, uint256 newPrice);\n    event Receive(address indexed from, uint256 indexed amount);\n    event ChangeListingFee(uint256 fee);\n\n    constructor(IERC20 _token, uint16 _listingFee) {\n        token = _token;\n        listingFee = _listingFee;\n    }\n\n    modifier onlySeller(uint256 offerId) {\n        address seller = idToOffer[offerId].seller;\n        require(seller == _msgSender(), \"Only seller allowed\");\n        _;\n    }\n\n    modifier whenNotClosed(uint256 offerId) {\n        bool closed = idToOffer[offerId].closed;\n        require(closed == false, \"Offer closed\");\n        _;\n    }\n\n    function changeListingFee(uint16 fee) external onlyOwner {\n        require(fee <= 3000, \"Fee must less than or equal to 30%\");\n        listingFee = fee;\n        emit ChangeListingFee(listingFee);\n    }\n\n    function offer(\n        IERC721 hostContract,\n        uint256 tokenId,\n        uint256 price\n    ) external nonReentrant returns (bool) {\n        require(price > 0, \"Price must be positive\");\n        _payFee(price);\n        hostContract.transferFrom(_msgSender(), address(this), tokenId);\n        _nonce.increment();\n        _openning.increment();\n        uint256 offerId = _nonce.current();\n        idToOffer[offerId] = Offer(\n            offerId,\n            hostContract,\n            tokenId,\n            _msgSender(),\n            price,\n            false\n        );\n        emit OfferCreated(\n            offerId,\n            hostContract,\n            tokenId,\n            _msgSender(),\n            price,\n            false\n        );\n        return true;\n    }\n\n    function cancel(uint256 offerId)\n        external\n        nonReentrant\n        onlySeller(offerId)\n        whenNotClosed(offerId)\n        returns (bool)\n    {\n        idToOffer[offerId].closed = true;\n        _openning.decrement();\n        uint256 tokenId = idToOffer[offerId].tokenId;\n        IERC721 hostContract = idToOffer[offerId].hostContract;\n        hostContract.transferFrom(address(this), _msgSender(), tokenId);\n        emit OfferClosed(offerId);\n        return true;\n    }\n\n    function changePrice(uint256 offerId, uint256 newPrice)\n        external\n        nonReentrant\n        onlySeller(offerId)\n        whenNotClosed(offerId)\n        returns (bool)\n    {\n        idToOffer[offerId].price = newPrice;\n        emit OfferPriceChanged(offerId, newPrice);\n        return true;\n    }\n\n    /* Creates the sale of a marketplace item */\n    /* Transfers ownership of the item, as well as funds between parties */\n    function buy(uint256 offerId)\n        external\n        nonReentrant\n        whenNotClosed(offerId)\n        returns (bool)\n    {\n        uint256 price = idToOffer[offerId].price;\n        uint256 tokenId = idToOffer[offerId].tokenId;\n        address seller = idToOffer[offerId].seller;\n        IERC721 nftContract = idToOffer[offerId].hostContract;\n        bool success = token.transferFrom(_msgSender(), seller, price);\n        require(success, \"Marketplace: Can not pay seller for the offering\");\n        nftContract.transferFrom(address(this), _msgSender(), tokenId);\n        idToOffer[offerId].closed = true;\n        _openning.decrement();\n        emit OfferClosed(offerId);\n        return true;\n    }\n\n    function _payFee(uint256 amount) internal {\n        uint256 fee = calculateFee(amount);\n        bool success = token.transferFrom(_msgSender(), owner(), fee);\n        require(\n            success,\n            \"Marketplace: Can not pay owner for the listing price\"\n        );\n    }\n\n    function calculateFee(uint256 amount) public view returns (uint256) {\n        return amount.mul(listingFee).div(10000);\n    }\n\n    /* receive ether function */\n    receive() external payable {\n        emit Receive(_msgSender(), msg.value);\n    }\n\n    /* let owner withdraw ether from contract */\n    function withdraw() external onlyOwner returns (bool) {\n        uint256 balance = address(this).balance;\n        payable(owner()).transfer(balance);\n        return true;\n    }\n\n    function total() public view returns (uint256) {\n        return _nonce.current();\n    }\n\n    function openning() public view returns (uint256) {\n        return _openning.current();\n    }\n\n    /* Returns offerId from openning offerings*/\n    function getOpeningOffersId() public view returns (uint256[] memory) {\n        uint256 itemCount = _nonce.current();\n        uint256 offeringCount = _openning.current();\n        uint256 currentIndex = 0;\n        uint256[] memory indexes = new uint256[](offeringCount);\n        for (uint256 i = 0; i < itemCount; i++) {\n            if (!idToOffer[i + 1].closed) {\n                indexes[currentIndex] = i + 1;\n                currentIndex++;\n            }\n        }\n        return indexes;\n    }\n\n    function getOffer(uint256 offerId) public view returns (Offer memory) {\n        Offer memory item = idToOffer[offerId];\n        return item;\n    }\n\n    function getOfferIdBySeller(address seller)\n        public\n        view\n        returns (uint256[] memory)\n    {\n        uint256 totalOffers = _nonce.current();\n        uint256 itemCount = 0;\n        uint256 currentIndex = 0;\n\n        for (uint256 i = 0; i < totalOffers; i++) {\n            if (idToOffer[i + 1].seller == seller) {\n                itemCount++;\n            }\n        }\n        uint256[] memory indexes = new uint256[](itemCount);\n        for (uint256 i = 0; i < itemCount; i++) {\n            if (idToOffer[i + 1].seller == seller) {\n                indexes[currentIndex] = i + 1;\n                currentIndex++;\n            }\n        }\n        return indexes;\n    }\n}\n",
  "sourcePath": "/home/black/Working/blockchain-learning/solidity/bizverse/contracts/Marketplace.sol",
  "compiler": {
    "name": "solc",
    "version": "0.8.0+commit.c7dfd78e.Emscripten.clang"
  },
  "schemaVersion": "3.4.3",
  "updatedAt": "2021-11-29T17:04:21.685Z",
  "devdoc": {
    "kind": "dev",
    "methods": {
      "owner()": {
        "details": "Returns the address of the current owner."
      },
      "renounceOwnership()": {
        "details": "Leaves the contract without owner. It will not be possible to call `onlyOwner` functions anymore. Can only be called by the current owner. NOTE: Renouncing ownership will leave the contract without an owner, thereby removing any functionality that is only available to the owner."
      },
      "transferOwnership(address)": {
        "details": "Transfers ownership of the contract to a new account (`newOwner`). Can only be called by the current owner."
      }
    },
    "version": 1
  },
  "userdoc": {
    "kind": "user",
    "methods": {},
    "version": 1
  }
}