{
  "contractName": "Marketplace",
  "abi": [
    {
      "inputs": [
        {
          "internalType": "contract IERC20",
          "name": "_token",
          "type": "address"
        },
        {
          "internalType": "uint256",
          "name": "_listingPrice",
          "type": "uint256"
        }
      ],
      "stateMutability": "nonpayable",
      "type": "constructor"
    },
    {
      "anonymous": false,
      "inputs": [
        {
          "indexed": false,
          "internalType": "uint256",
          "name": "newPrice",
          "type": "uint256"
        }
      ],
      "name": "ChangeListingPrice",
      "type": "event"
    },
    {
      "anonymous": false,
      "inputs": [
        {
          "indexed": true,
          "internalType": "uint256",
          "name": "offeringId",
          "type": "uint256"
        }
      ],
      "name": "OfferingClosed",
      "type": "event"
    },
    {
      "anonymous": false,
      "inputs": [
        {
          "indexed": true,
          "internalType": "uint256",
          "name": "offeringId",
          "type": "uint256"
        },
        {
          "indexed": true,
          "internalType": "address",
          "name": "nftContract",
          "type": "address"
        },
        {
          "indexed": true,
          "internalType": "uint256",
          "name": "tokenId",
          "type": "uint256"
        },
        {
          "indexed": false,
          "internalType": "address",
          "name": "seller",
          "type": "address"
        },
        {
          "indexed": false,
          "internalType": "uint256",
          "name": "price",
          "type": "uint256"
        },
        {
          "indexed": false,
          "internalType": "bool",
          "name": "closed",
          "type": "bool"
        }
      ],
      "name": "OfferingCreated",
      "type": "event"
    },
    {
      "anonymous": false,
      "inputs": [
        {
          "indexed": true,
          "internalType": "uint256",
          "name": "offeringId",
          "type": "uint256"
        },
        {
          "indexed": false,
          "internalType": "uint256",
          "name": "newPrice",
          "type": "uint256"
        }
      ],
      "name": "OfferingPriceChanged",
      "type": "event"
    },
    {
      "anonymous": false,
      "inputs": [
        {
          "indexed": true,
          "internalType": "address",
          "name": "previousOwner",
          "type": "address"
        },
        {
          "indexed": true,
          "internalType": "address",
          "name": "newOwner",
          "type": "address"
        }
      ],
      "name": "OwnershipTransferred",
      "type": "event"
    },
    {
      "anonymous": false,
      "inputs": [
        {
          "indexed": true,
          "internalType": "address",
          "name": "from",
          "type": "address"
        },
        {
          "indexed": true,
          "internalType": "uint256",
          "name": "amount",
          "type": "uint256"
        }
      ],
      "name": "Receive",
      "type": "event"
    },
    {
      "inputs": [],
      "name": "listingPrice",
      "outputs": [
        {
          "internalType": "uint256",
          "name": "",
          "type": "uint256"
        }
      ],
      "stateMutability": "view",
      "type": "function"
    },
    {
      "inputs": [],
      "name": "owner",
      "outputs": [
        {
          "internalType": "address",
          "name": "",
          "type": "address"
        }
      ],
      "stateMutability": "view",
      "type": "function"
    },
    {
      "inputs": [],
      "name": "renounceOwnership",
      "outputs": [],
      "stateMutability": "nonpayable",
      "type": "function"
    },
    {
      "inputs": [],
      "name": "token",
      "outputs": [
        {
          "internalType": "contract IERC20",
          "name": "",
          "type": "address"
        }
      ],
      "stateMutability": "view",
      "type": "function"
    },
    {
      "inputs": [
        {
          "internalType": "address",
          "name": "newOwner",
          "type": "address"
        }
      ],
      "name": "transferOwnership",
      "outputs": [],
      "stateMutability": "nonpayable",
      "type": "function"
    },
    {
      "stateMutability": "payable",
      "type": "receive"
    },
    {
      "inputs": [
        {
          "internalType": "uint256",
          "name": "newPrice",
          "type": "uint256"
        }
      ],
      "name": "changeListingPrice",
      "outputs": [],
      "stateMutability": "nonpayable",
      "type": "function"
    },
    {
      "inputs": [
        {
          "internalType": "address",
          "name": "nftContract",
          "type": "address"
        },
        {
          "internalType": "uint256",
          "name": "tokenId",
          "type": "uint256"
        },
        {
          "internalType": "uint256",
          "name": "price",
          "type": "uint256"
        }
      ],
      "name": "offer",
      "outputs": [
        {
          "internalType": "bool",
          "name": "",
          "type": "bool"
        }
      ],
      "stateMutability": "nonpayable",
      "type": "function"
    },
    {
      "inputs": [
        {
          "internalType": "uint256",
          "name": "offeringId",
          "type": "uint256"
        }
      ],
      "name": "cancelOffering",
      "outputs": [
        {
          "internalType": "bool",
          "name": "",
          "type": "bool"
        }
      ],
      "stateMutability": "nonpayable",
      "type": "function"
    },
    {
      "inputs": [
        {
          "internalType": "uint256",
          "name": "offeringId",
          "type": "uint256"
        },
        {
          "internalType": "uint256",
          "name": "newPrice",
          "type": "uint256"
        }
      ],
      "name": "changeOfferingPrice",
      "outputs": [
        {
          "internalType": "bool",
          "name": "",
          "type": "bool"
        }
      ],
      "stateMutability": "nonpayable",
      "type": "function"
    },
    {
      "inputs": [
        {
          "internalType": "uint256",
          "name": "offeringId",
          "type": "uint256"
        }
      ],
      "name": "buyOffering",
      "outputs": [
        {
          "internalType": "bool",
          "name": "",
          "type": "bool"
        }
      ],
      "stateMutability": "nonpayable",
      "type": "function"
    },
    {
      "inputs": [],
      "name": "withdraw",
      "outputs": [
        {
          "internalType": "bool",
          "name": "",
          "type": "bool"
        }
      ],
      "stateMutability": "nonpayable",
      "type": "function"
    },
    {
      "inputs": [],
      "name": "fetchOpenOfferings",
      "outputs": [
        {
          "components": [
            {
              "internalType": "uint256",
              "name": "offeringId",
              "type": "uint256"
            },
            {
              "internalType": "address",
              "name": "nftContract",
              "type": "address"
            },
            {
              "internalType": "uint256",
              "name": "tokenId",
              "type": "uint256"
            },
            {
              "internalType": "address",
              "name": "seller",
              "type": "address"
            },
            {
              "internalType": "uint256",
              "name": "price",
              "type": "uint256"
            },
            {
              "internalType": "bool",
              "name": "closed",
              "type": "bool"
            }
          ],
          "internalType": "struct Marketplace.Offering[]",
          "name": "",
          "type": "tuple[]"
        }
      ],
      "stateMutability": "view",
      "type": "function"
    },
    {
      "inputs": [
        {
          "internalType": "uint256",
          "name": "offeringId",
          "type": "uint256"
        }
      ],
      "name": "fetchOffering",
      "outputs": [
        {
          "components": [
            {
              "internalType": "uint256",
              "name": "offeringId",
              "type": "uint256"
            },
            {
              "internalType": "address",
              "name": "nftContract",
              "type": "address"
            },
            {
              "internalType": "uint256",
              "name": "tokenId",
              "type": "uint256"
            },
            {
              "internalType": "address",
              "name": "seller",
              "type": "address"
            },
            {
              "internalType": "uint256",
              "name": "price",
              "type": "uint256"
            },
            {
              "internalType": "bool",
              "name": "closed",
              "type": "bool"
            }
          ],
          "internalType": "struct Marketplace.Offering",
          "name": "",
          "type": "tuple"
        }
      ],
      "stateMutability": "view",
      "type": "function"
    },
    {
      "inputs": [
        {
          "internalType": "address",
          "name": "seller",
          "type": "address"
        }
      ],
      "name": "fetchOfferingsFrom",
      "outputs": [
        {
          "components": [
            {
              "internalType": "uint256",
              "name": "offeringId",
              "type": "uint256"
            },
            {
              "internalType": "address",
              "name": "nftContract",
              "type": "address"
            },
            {
              "internalType": "uint256",
              "name": "tokenId",
              "type": "uint256"
            },
            {
              "internalType": "address",
              "name": "seller",
              "type": "address"
            },
            {
              "internalType": "uint256",
              "name": "price",
              "type": "uint256"
            },
            {
              "internalType": "bool",
              "name": "closed",
              "type": "bool"
            }
          ],
          "internalType": "struct Marketplace.Offering[]",
          "name": "",
          "type": "tuple[]"
        }
      ],
      "stateMutability": "view",
      "type": "function"
    }
  ],
  "bytecode": "0x60a06040523480156200001157600080fd5b5060405162002843380380620028438339818101604052810190620000379190620001a1565b60016000819055506200005f62000053620000a560201b60201c565b620000ad60201b60201c565b8173ffffffffffffffffffffffffffffffffffffffff1660808173ffffffffffffffffffffffffffffffffffffffff1660601b8152505080600481905550505062000268565b600033905090565b6000600160009054906101000a900473ffffffffffffffffffffffffffffffffffffffff16905081600160006101000a81548173ffffffffffffffffffffffffffffffffffffffff021916908373ffffffffffffffffffffffffffffffffffffffff1602179055508173ffffffffffffffffffffffffffffffffffffffff168173ffffffffffffffffffffffffffffffffffffffff167f8be0079c531659141344cd1fd0a4f28419497f9722a3daafe3b4186f6b6457e060405160405180910390a35050565b600081519050620001848162000234565b92915050565b6000815190506200019b816200024e565b92915050565b60008060408385031215620001b557600080fd5b6000620001c58582860162000173565b9250506020620001d8858286016200018a565b9150509250929050565b6000620001ef826200020a565b9050919050565b60006200020382620001e2565b9050919050565b600073ffffffffffffffffffffffffffffffffffffffff82169050919050565b6000819050919050565b6200023f81620001f6565b81146200024b57600080fd5b50565b62000259816200022a565b81146200026557600080fd5b50565b60805160601c6125ae6200029560003960008181610929015281816118da0152611a2201526125ae6000f3fe6080604052600436106100e15760003560e01c8063ba0f1d9c1161007f578063e2c25c8511610059578063e2c25c851461032a578063f2fde38b14610367578063f5d39a9114610390578063fc0c546a146103bb57610133565b8063ba0f1d9c14610299578063c3addca8146102c2578063c78f19f9146102ff57610133565b80635d8efce1116100bb5780635d8efce1146101dd578063715018a61461021a57806374a46050146102315780638da5cb5b1461026e57610133565b806338e1484d146101385780633ccfd60b146101755780635cd97746146101a057610133565b3661013357346100ef6103e6565b73ffffffffffffffffffffffffffffffffffffffff167fd6717f327e0cb88b4a97a7f67a453e9258252c34937ccbdd86de7cb840e7def360405160405180910390a3005b600080fd5b34801561014457600080fd5b5061015f600480360381019061015a9190611cb5565b6103ee565b60405161016c9190612223565b60405180910390f35b34801561018157600080fd5b5061018a6105c8565b6040516101979190612223565b60405180910390f35b3480156101ac57600080fd5b506101c760048036038101906101c29190611c8c565b6106a1565b6040516101d49190612379565b60405180910390f35b3480156101e957600080fd5b5061020460048036038101906101ff9190611c8c565b6107b9565b6040516102119190612223565b60405180910390f35b34801561022657600080fd5b5061022f610b13565b005b34801561023d57600080fd5b5061025860048036038101906102539190611c14565b610b9b565b6040516102659190612223565b60405180910390f35b34801561027a57600080fd5b50610283610e83565b6040516102909190612178565b60405180910390f35b3480156102a557600080fd5b506102c060048036038101906102bb9190611c8c565b610ead565b005b3480156102ce57600080fd5b506102e960048036038101906102e49190611c8c565b610f6c565b6040516102f69190612223565b60405180910390f35b34801561030b57600080fd5b50610314611226565b6040516103219190612394565b60405180910390f35b34801561033657600080fd5b50610351600480360381019061034c9190611beb565b61122c565b60405161035e9190612201565b60405180910390f35b34801561037357600080fd5b5061038e60048036038101906103899190611beb565b611570565b005b34801561039c57600080fd5b506103a5611668565b6040516103b29190612201565b60405180910390f35b3480156103c757600080fd5b506103d06118d8565b6040516103dd919061223e565b60405180910390f35b600033905090565b600060026000541415610436576040517f08c379a000000000000000000000000000000000000000000000000000000000815260040161042d90612359565b60405180910390fd5b60026000819055508260006005600083815260200190815260200160002060030160009054906101000a900473ffffffffffffffffffffffffffffffffffffffff1690506104826103e6565b73ffffffffffffffffffffffffffffffffffffffff168173ffffffffffffffffffffffffffffffffffffffff16146104ef576040517f08c379a00000000000000000000000000000000000000000000000000000000081526004016104e6906122f9565b60405180910390fd5b8460006005600083815260200190815260200160002060050160009054906101000a900460ff169050600015158115151461055f576040517f08c379a0000000000000000000000000000000000000000000000000000000008152600401610556906122d9565b60405180910390fd5b856005600089815260200190815260200160002060040181905550867f686293a0b6970286ed8ef0f6ec258824f6bdbcc671138d5d6176ca37a7c9a914876040516105aa9190612394565b60405180910390a26001945050505050600160008190555092915050565b60006105d26103e6565b73ffffffffffffffffffffffffffffffffffffffff166105f0610e83565b73ffffffffffffffffffffffffffffffffffffffff1614610646576040517f08c379a000000000000000000000000000000000000000000000000000000000815260040161063d90612319565b60405180910390fd5b6000479050610653610e83565b73ffffffffffffffffffffffffffffffffffffffff166108fc829081150290604051600060405180830381858888f19350505050158015610698573d6000803e3d6000fd5b50600191505090565b6106a9611b48565b6000600560008481526020019081526020016000206040518060c0016040529081600082015481526020016001820160009054906101000a900473ffffffffffffffffffffffffffffffffffffffff1673ffffffffffffffffffffffffffffffffffffffff1673ffffffffffffffffffffffffffffffffffffffff168152602001600282015481526020016003820160009054906101000a900473ffffffffffffffffffffffffffffffffffffffff1673ffffffffffffffffffffffffffffffffffffffff1673ffffffffffffffffffffffffffffffffffffffff168152602001600482015481526020016005820160009054906101000a900460ff161515151581525050905080915050919050565b600060026000541415610801576040517f08c379a00000000000000000000000000000000000000000000000000000000081526004016107f890612359565b60405180910390fd5b60026000819055508160006005600083815260200190815260200160002060050160009054906101000a900460ff1690506000151581151514610879576040517f08c379a0000000000000000000000000000000000000000000000000000000008152600401610870906122d9565b60405180910390fd5b60006005600086815260200190815260200160002060040154905060006005600087815260200190815260200160002060020154905060006005600088815260200190815260200160002060030160009054906101000a900473ffffffffffffffffffffffffffffffffffffffff16905060006005600089815260200190815260200160002060010160009054906101000a900473ffffffffffffffffffffffffffffffffffffffff16905060007f000000000000000000000000000000000000000000000000000000000000000073ffffffffffffffffffffffffffffffffffffffff166323b872dd61096b6103e6565b85886040518463ffffffff1660e01b815260040161098b93929190612193565b602060405180830381600087803b1580156109a557600080fd5b505af11580156109b9573d6000803e3d6000fd5b505050506040513d601f19601f820116820180604052508101906109dd9190611c63565b905080610a1f576040517f08c379a0000000000000000000000000000000000000000000000000000000008152600401610a1690612299565b60405180910390fd5b8173ffffffffffffffffffffffffffffffffffffffff166323b872dd30610a446103e6565b876040518463ffffffff1660e01b8152600401610a6393929190612193565b600060405180830381600087803b158015610a7d57600080fd5b505af1158015610a91573d6000803e3d6000fd5b505050506001600560008b815260200190815260200160002060050160006101000a81548160ff021916908315150217905550610ace60036118fc565b887f90dae6b359658ec462b96166e3eb931ff5f15d621223796f024974b19bda2a3860405160405180910390a260019750505050505050506001600081905550919050565b610b1b6103e6565b73ffffffffffffffffffffffffffffffffffffffff16610b39610e83565b73ffffffffffffffffffffffffffffffffffffffff1614610b8f576040517f08c379a0000000000000000000000000000000000000000000000000000000008152600401610b8690612319565b60405180910390fd5b610b996000611958565b565b600060026000541415610be3576040517f08c379a0000000000000000000000000000000000000000000000000000000008152600401610bda90612359565b60405180910390fd5b600260008190555060008211610c2e576040517f08c379a0000000000000000000000000000000000000000000000000000000008152600401610c2590612339565b60405180910390fd5b610c36611a1e565b8373ffffffffffffffffffffffffffffffffffffffff166323b872dd610c5a6103e6565b30866040518463ffffffff1660e01b8152600401610c7a93929190612193565b600060405180830381600087803b158015610c9457600080fd5b505af1158015610ca8573d6000803e3d6000fd5b50505050610cb66002611b24565b610cc06003611b24565b6000610ccc6002611b3a565b90506040518060c001604052808281526020018673ffffffffffffffffffffffffffffffffffffffff168152602001858152602001610d096103e6565b73ffffffffffffffffffffffffffffffffffffffff16815260200184815260200160001515815250600560008381526020019081526020016000206000820151816000015560208201518160010160006101000a81548173ffffffffffffffffffffffffffffffffffffffff021916908373ffffffffffffffffffffffffffffffffffffffff1602179055506040820151816002015560608201518160030160006101000a81548173ffffffffffffffffffffffffffffffffffffffff021916908373ffffffffffffffffffffffffffffffffffffffff1602179055506080820151816004015560a08201518160050160006101000a81548160ff021916908315150217905550905050838573ffffffffffffffffffffffffffffffffffffffff16827f24931221b7f91b341a67ad3879a300c7ef24112869d77858e96ec3da934cfd0e610e556103e6565b876000604051610e67939291906121ca565b60405180910390a4600191505060016000819055509392505050565b6000600160009054906101000a900473ffffffffffffffffffffffffffffffffffffffff16905090565b610eb56103e6565b73ffffffffffffffffffffffffffffffffffffffff16610ed3610e83565b73ffffffffffffffffffffffffffffffffffffffff1614610f29576040517f08c379a0000000000000000000000000000000000000000000000000000000008152600401610f2090612319565b60405180910390fd5b806004819055507f8f7a74d85470e91d6da34e8b967f880462f0f69b2bc311767c67e5b7b5c60b80600454604051610f619190612394565b60405180910390a150565b600060026000541415610fb4576040517f08c379a0000000000000000000000000000000000000000000000000000000008152600401610fab90612359565b60405180910390fd5b60026000819055508160006005600083815260200190815260200160002060030160009054906101000a900473ffffffffffffffffffffffffffffffffffffffff1690506110006103e6565b73ffffffffffffffffffffffffffffffffffffffff168173ffffffffffffffffffffffffffffffffffffffff161461106d576040517f08c379a0000000000000000000000000000000000000000000000000000000008152600401611064906122f9565b60405180910390fd5b8360006005600083815260200190815260200160002060050160009054906101000a900460ff16905060001515811515146110dd576040517f08c379a00000000000000000000000000000000000000000000000000000000081526004016110d4906122d9565b60405180910390fd5b60016005600088815260200190815260200160002060050160006101000a81548160ff02191690831515021790555061111660036118fc565b60006005600088815260200190815260200160002060020154905060006005600089815260200190815260200160002060010160009054906101000a900473ffffffffffffffffffffffffffffffffffffffff1690508073ffffffffffffffffffffffffffffffffffffffff166323b872dd306111916103e6565b856040518463ffffffff1660e01b81526004016111b093929190612193565b600060405180830381600087803b1580156111ca57600080fd5b505af11580156111de573d6000803e3d6000fd5b50505050877f90dae6b359658ec462b96166e3eb931ff5f15d621223796f024974b19bda2a3860405160405180910390a2600196505050505050506001600081905550919050565b60045481565b6060600061123a6002611b3a565b905060008060005b838110156112e2578573ffffffffffffffffffffffffffffffffffffffff166005600060018461127291906123f9565b815260200190815260200160002060030160009054906101000a900473ffffffffffffffffffffffffffffffffffffffff1673ffffffffffffffffffffffffffffffffffffffff1614156112cf5782806112cb906124bb565b9350505b80806112da906124bb565b915050611242565b5060008267ffffffffffffffff811115611325577f4e487b7100000000000000000000000000000000000000000000000000000000600052604160045260246000fd5b60405190808252806020026020018201604052801561135e57816020015b61134b611b48565b8152602001906001900390816113435790505b50905060005b83811015611563578673ffffffffffffffffffffffffffffffffffffffff166005600060018461139491906123f9565b815260200190815260200160002060030160009054906101000a900473ffffffffffffffffffffffffffffffffffffffff1673ffffffffffffffffffffffffffffffffffffffff1614156115505760006001826113f191906123f9565b90506000600560008381526020019081526020016000209050806040518060c0016040529081600082015481526020016001820160009054906101000a900473ffffffffffffffffffffffffffffffffffffffff1673ffffffffffffffffffffffffffffffffffffffff1673ffffffffffffffffffffffffffffffffffffffff168152602001600282015481526020016003820160009054906101000a900473ffffffffffffffffffffffffffffffffffffffff1673ffffffffffffffffffffffffffffffffffffffff1673ffffffffffffffffffffffffffffffffffffffff168152602001600482015481526020016005820160009054906101000a900460ff161515151581525050848681518110611534577f4e487b7100000000000000000000000000000000000000000000000000000000600052603260045260246000fd5b6020026020010181905250848061154a906124bb565b95505050505b808061155b906124bb565b915050611364565b5080945050505050919050565b6115786103e6565b73ffffffffffffffffffffffffffffffffffffffff16611596610e83565b73ffffffffffffffffffffffffffffffffffffffff16146115ec576040517f08c379a00000000000000000000000000000000000000000000000000000000081526004016115e390612319565b60405180910390fd5b600073ffffffffffffffffffffffffffffffffffffffff168173ffffffffffffffffffffffffffffffffffffffff16141561165c576040517f08c379a000000000000000000000000000000000000000000000000000000000815260040161165390612279565b60405180910390fd5b61166581611958565b50565b606060006116766002611b3a565b905060006116846003611b3a565b90506000808267ffffffffffffffff8111156116c9577f4e487b7100000000000000000000000000000000000000000000000000000000600052604160045260246000fd5b60405190808252806020026020018201604052801561170257816020015b6116ef611b48565b8152602001906001900390816116e75790505b50905060005b848110156118cd57600015156005600060018461172591906123f9565b815260200190815260200160002060050160009054906101000a900460ff16151514156118ba57600060018261175b91906123f9565b90506000600560008381526020019081526020016000209050806040518060c0016040529081600082015481526020016001820160009054906101000a900473ffffffffffffffffffffffffffffffffffffffff1673ffffffffffffffffffffffffffffffffffffffff1673ffffffffffffffffffffffffffffffffffffffff168152602001600282015481526020016003820160009054906101000a900473ffffffffffffffffffffffffffffffffffffffff1673ffffffffffffffffffffffffffffffffffffffff1673ffffffffffffffffffffffffffffffffffffffff168152602001600482015481526020016005820160009054906101000a900460ff16151515158152505084868151811061189e577f4e487b7100000000000000000000000000000000000000000000000000000000600052603260045260246000fd5b602002602001018190525084806118b4906124bb565b95505050505b80806118c5906124bb565b915050611708565b508094505050505090565b7f000000000000000000000000000000000000000000000000000000000000000081565b60008160000154905060008111611948576040517f08c379a000000000000000000000000000000000000000000000000000000000815260040161193f90612259565b60405180910390fd5b6001810382600001819055505050565b6000600160009054906101000a900473ffffffffffffffffffffffffffffffffffffffff16905081600160006101000a81548173ffffffffffffffffffffffffffffffffffffffff021916908373ffffffffffffffffffffffffffffffffffffffff1602179055508173ffffffffffffffffffffffffffffffffffffffff168173ffffffffffffffffffffffffffffffffffffffff167f8be0079c531659141344cd1fd0a4f28419497f9722a3daafe3b4186f6b6457e060405160405180910390a35050565b60007f000000000000000000000000000000000000000000000000000000000000000073ffffffffffffffffffffffffffffffffffffffff166323b872dd611a646103e6565b611a6c610e83565b6004546040518463ffffffff1660e01b8152600401611a8d93929190612193565b602060405180830381600087803b158015611aa757600080fd5b505af1158015611abb573d6000803e3d6000fd5b505050506040513d601f19601f82011682018060405250810190611adf9190611c63565b905080611b21576040517f08c379a0000000000000000000000000000000000000000000000000000000008152600401611b18906122b9565b60405180910390fd5b50565b6001816000016000828254019250508190555050565b600081600001549050919050565b6040518060c0016040528060008152602001600073ffffffffffffffffffffffffffffffffffffffff16815260200160008152602001600073ffffffffffffffffffffffffffffffffffffffff168152602001600081526020016000151581525090565b600081359050611bbb81612533565b92915050565b600081519050611bd08161254a565b92915050565b600081359050611be581612561565b92915050565b600060208284031215611bfd57600080fd5b6000611c0b84828501611bac565b91505092915050565b600080600060608486031215611c2957600080fd5b6000611c3786828701611bac565b9350506020611c4886828701611bd6565b9250506040611c5986828701611bd6565b9150509250925092565b600060208284031215611c7557600080fd5b6000611c8384828501611bc1565b91505092915050565b600060208284031215611c9e57600080fd5b6000611cac84828501611bd6565b91505092915050565b60008060408385031215611cc857600080fd5b6000611cd685828601611bd6565b9250506020611ce785828601611bd6565b9150509250929050565b6000611cfd8383612064565b60c08301905092915050565b611d128161244f565b82525050565b611d218161244f565b82525050565b6000611d32826123bf565b611d3c81856123d7565b9350611d47836123af565b8060005b83811015611d78578151611d5f8882611cf1565b9750611d6a836123ca565b925050600181019050611d4b565b5085935050505092915050565b611d8e81612461565b82525050565b611d9d81612461565b82525050565b611dac81612497565b82525050565b6000611dbf601b836123e8565b91507f436f756e7465723a2064656372656d656e74206f766572666c6f7700000000006000830152602082019050919050565b6000611dff6026836123e8565b91507f4f776e61626c653a206e6577206f776e657220697320746865207a65726f206160008301527f64647265737300000000000000000000000000000000000000000000000000006020830152604082019050919050565b6000611e656030836123e8565b91507f4d61726b6574706c6163653a2043616e206e6f74207061792073656c6c65722060008301527f666f7220746865206f66666572696e67000000000000000000000000000000006020830152604082019050919050565b6000611ecb6034836123e8565b91507f4d61726b6574706c6163653a2043616e206e6f7420706179206f776e6572206660008301527f6f7220746865206c697374696e672070726963650000000000000000000000006020830152604082019050919050565b6000611f31600f836123e8565b91507f4f66666572696e6720636c6f73656400000000000000000000000000000000006000830152602082019050919050565b6000611f71601d836123e8565b91507f4f6e6c79206f66666572696e672773206f776e657220616c6c6f7765640000006000830152602082019050919050565b6000611fb16020836123e8565b91507f4f776e61626c653a2063616c6c6572206973206e6f7420746865206f776e65726000830152602082019050919050565b6000611ff16016836123e8565b91507f5072696365206d75737420626520706f736974697665000000000000000000006000830152602082019050919050565b6000612031601f836123e8565b91507f5265656e7472616e637947756172643a207265656e7472616e742063616c6c006000830152602082019050919050565b60c08201600082015161207a600085018261215a565b50602082015161208d6020850182611d09565b5060408201516120a0604085018261215a565b5060608201516120b36060850182611d09565b5060808201516120c6608085018261215a565b5060a08201516120d960a0850182611d85565b50505050565b60c0820160008201516120f5600085018261215a565b5060208201516121086020850182611d09565b50604082015161211b604085018261215a565b50606082015161212e6060850182611d09565b506080820151612141608085018261215a565b5060a082015161215460a0850182611d85565b50505050565b6121638161248d565b82525050565b6121728161248d565b82525050565b600060208201905061218d6000830184611d18565b92915050565b60006060820190506121a86000830186611d18565b6121b56020830185611d18565b6121c26040830184612169565b949350505050565b60006060820190506121df6000830186611d18565b6121ec6020830185612169565b6121f96040830184611d94565b949350505050565b6000602082019050818103600083015261221b8184611d27565b905092915050565b60006020820190506122386000830184611d94565b92915050565b60006020820190506122536000830184611da3565b92915050565b6000602082019050818103600083015261227281611db2565b9050919050565b6000602082019050818103600083015261229281611df2565b9050919050565b600060208201905081810360008301526122b281611e58565b9050919050565b600060208201905081810360008301526122d281611ebe565b9050919050565b600060208201905081810360008301526122f281611f24565b9050919050565b6000602082019050818103600083015261231281611f64565b9050919050565b6000602082019050818103600083015261233281611fa4565b9050919050565b6000602082019050818103600083015261235281611fe4565b9050919050565b6000602082019050818103600083015261237281612024565b9050919050565b600060c08201905061238e60008301846120df565b92915050565b60006020820190506123a96000830184612169565b92915050565b6000819050602082019050919050565b600081519050919050565b6000602082019050919050565b600082825260208201905092915050565b600082825260208201905092915050565b60006124048261248d565b915061240f8361248d565b9250827fffffffffffffffffffffffffffffffffffffffffffffffffffffffffffffffff0382111561244457612443612504565b5b828201905092915050565b600061245a8261246d565b9050919050565b60008115159050919050565b600073ffffffffffffffffffffffffffffffffffffffff82169050919050565b6000819050919050565b60006124a2826124a9565b9050919050565b60006124b48261246d565b9050919050565b60006124c68261248d565b91507fffffffffffffffffffffffffffffffffffffffffffffffffffffffffffffffff8214156124f9576124f8612504565b5b600182019050919050565b7f4e487b7100000000000000000000000000000000000000000000000000000000600052601160045260246000fd5b61253c8161244f565b811461254757600080fd5b50565b61255381612461565b811461255e57600080fd5b50565b61256a8161248d565b811461257557600080fd5b5056fea26469706673582212202d019f0dae59f989f739e960e9455f5651b5c4f31f045e0f65168417d3fd32a164736f6c63430008000033",
  "immutableReferences": {
    "3800": [
      {
        "length": 32,
        "start": 2345
      },
      {
        "length": 32,
        "start": 6362
      },
      {
        "length": 32,
        "start": 6690
      }
    ]
  },
  "source": "pragma solidity 0.8.0;\n\nimport \"@openzeppelin/contracts/security/ReentrancyGuard.sol\";\nimport \"@openzeppelin/contracts/token/ERC721/IERC721.sol\";\nimport \"@openzeppelin/contracts/utils/Counters.sol\";\nimport \"@openzeppelin/contracts/token/ERC20/IERC20.sol\";\nimport \"@openzeppelin/contracts/access/Ownable.sol\";\n\ncontract Marketplace is ReentrancyGuard, Ownable {\n    using Counters for Counters.Counter;\n    struct Offering {\n        uint256 offeringId;\n        address nftContract;\n        uint256 tokenId;\n        address seller;\n        uint256 price;\n        bool closed;\n    }\n    Counters.Counter private _nonce;\n    Counters.Counter private _openningCounter;\n    IERC20 public immutable token;\n    uint256 public listingPrice;\n    mapping(uint256 => Offering) private idToOffering;\n\n    event OfferingCreated(\n        uint256 indexed offeringId,\n        address indexed nftContract,\n        uint256 indexed tokenId,\n        address seller,\n        uint256 price,\n        bool closed\n    );\n    event OfferingClosed(uint256 indexed offeringId);\n    event OfferingPriceChanged(uint256 indexed offeringId, uint256 newPrice);\n    event Receive(address indexed from, uint256 indexed amount);\n    event ChangeListingPrice(uint256 newPrice);\n\n    constructor(IERC20 _token, uint256 _listingPrice) {\n        token = _token;\n        listingPrice = _listingPrice;\n    }\n\n    modifier onlySeller(uint256 offeringId) {\n        address seller = idToOffering[offeringId].seller;\n        require(seller == _msgSender(), \"Only offering's owner allowed\");\n        _;\n    }\n\n    modifier whenNotClosed(uint256 offeringId) {\n        bool closed = idToOffering[offeringId].closed;\n        require(closed == false, \"Offering closed\");\n        _;\n    }\n\n    function changeListingPrice(uint256 newPrice) external onlyOwner {\n        listingPrice = newPrice;\n        emit ChangeListingPrice(listingPrice);\n    }\n\n    function offer(\n        address nftContract,\n        uint256 tokenId,\n        uint256 price\n    ) external nonReentrant returns (bool) {\n        require(price > 0, \"Price must be positive\");\n        _payOwnerListingPrice();\n        IERC721(nftContract).transferFrom(_msgSender(), address(this), tokenId);\n        _nonce.increment();\n        _openningCounter.increment();\n        uint256 offeringId = _nonce.current();\n        idToOffering[offeringId] = Offering(\n            offeringId,\n            nftContract,\n            tokenId,\n            _msgSender(),\n            price,\n            false\n        );\n        emit OfferingCreated(\n            offeringId,\n            nftContract,\n            tokenId,\n            _msgSender(),\n            price,\n            false\n        );\n        return true;\n    }\n\n    function cancelOffering(uint256 offeringId)\n        external\n        nonReentrant\n        onlySeller(offeringId)\n        whenNotClosed(offeringId)\n        returns (bool)\n    {\n        idToOffering[offeringId].closed = true;\n        _openningCounter.decrement();\n        uint256 tokenId = idToOffering[offeringId].tokenId;\n        address nftContract = idToOffering[offeringId].nftContract;\n        IERC721(nftContract).transferFrom(address(this), _msgSender(), tokenId);\n        emit OfferingClosed(offeringId);\n        return true;\n    }\n\n    function changeOfferingPrice(uint256 offeringId, uint256 newPrice)\n        external\n        nonReentrant\n        onlySeller(offeringId)\n        whenNotClosed(offeringId)\n        returns (bool)\n    {\n        idToOffering[offeringId].price = newPrice;\n        emit OfferingPriceChanged(offeringId, newPrice);\n        return true;\n    }\n\n    /* Creates the sale of a marketplace item */\n    /* Transfers ownership of the item, as well as funds between parties */\n    function buyOffering(uint256 offeringId)\n        external\n        nonReentrant\n        whenNotClosed(offeringId)\n        returns (bool)\n    {\n        uint256 price = idToOffering[offeringId].price;\n        uint256 tokenId = idToOffering[offeringId].tokenId;\n        address seller = idToOffering[offeringId].seller;\n        address nftContract = idToOffering[offeringId].nftContract;\n        bool success = token.transferFrom(_msgSender(), seller, price);\n        require(success, \"Marketplace: Can not pay seller for the offering\");\n        IERC721(nftContract).transferFrom(address(this), _msgSender(), tokenId);\n        idToOffering[offeringId].closed = true;\n        _openningCounter.decrement();\n        emit OfferingClosed(offeringId);\n        return true;\n    }\n\n    function _payOwnerListingPrice() internal {\n        bool success = token.transferFrom(_msgSender(), owner(), listingPrice);\n        require(\n            success,\n            \"Marketplace: Can not pay owner for the listing price\"\n        );\n    }\n\n    /* receive ether function */\n    receive() external payable {\n        emit Receive(_msgSender(), msg.value);\n    }\n\n    /* let owner withdraw ether from contract */\n    function withdraw() external onlyOwner returns (bool) {\n        uint256 balance = address(this).balance;\n        payable(owner()).transfer(balance);\n        return true;\n    }\n\n    /* Returns all openning offerings */\n    function fetchOpenOfferings() public view returns (Offering[] memory) {\n        uint256 itemCount = _nonce.current();\n        uint256 offeringCount = _openningCounter.current();\n        uint256 currentIndex = 0;\n        Offering[] memory items = new Offering[](offeringCount);\n        for (uint256 i = 0; i < itemCount; i++) {\n            if (idToOffering[i + 1].closed == false) {\n                uint256 currentId = i + 1;\n                Offering storage currentOffering = idToOffering[currentId];\n                items[currentIndex] = currentOffering;\n                currentIndex++;\n            }\n        }\n        return items;\n    }\n\n    function fetchOffering(uint256 offeringId)\n        public\n        view\n        returns (Offering memory)\n    {\n        Offering memory item = idToOffering[offeringId];\n        return item;\n    }\n\n    function fetchOfferingsFrom(address seller)\n        public\n        view\n        returns (Offering[] memory)\n    {\n        uint256 total = _nonce.current();\n        uint256 itemCount = 0;\n        uint256 currentIndex = 0;\n\n        for (uint256 i = 0; i < total; i++) {\n            if (idToOffering[i + 1].seller == seller) {\n                itemCount++;\n            }\n        }\n\n        Offering[] memory items = new Offering[](itemCount);\n\n        for (uint256 i = 0; i < itemCount; i++) {\n            if (idToOffering[i + 1].seller == seller) {\n                uint256 currentId = i + 1;\n                Offering storage currentOffering = idToOffering[currentId];\n                items[currentIndex] = currentOffering;\n                currentIndex++;\n            }\n        }\n        return items;\n    }\n}\n",
  "sourcePath": "/home/black/Working/blockchain-learning/solidity/bizverse/contracts/Marketplace.sol",
  "compiler": {
    "name": "solc",
    "version": "0.8.0+commit.c7dfd78e.Emscripten.clang"
  },
  "schemaVersion": "3.4.3",
  "updatedAt": "2021-11-27T09:25:48.036Z",
  "devdoc": {
    "kind": "dev",
    "methods": {
      "owner()": {
        "details": "Returns the address of the current owner."
      },
      "renounceOwnership()": {
        "details": "Leaves the contract without owner. It will not be possible to call `onlyOwner` functions anymore. Can only be called by the current owner. NOTE: Renouncing ownership will leave the contract without an owner, thereby removing any functionality that is only available to the owner."
      },
      "transferOwnership(address)": {
        "details": "Transfers ownership of the contract to a new account (`newOwner`). Can only be called by the current owner."
      }
    },
    "version": 1
  },
  "userdoc": {
    "kind": "user",
    "methods": {},
    "version": 1
  }
}