{
  "contractName": "Private",
  "abi": [
    {
      "inputs": [
        {
          "internalType": "address",
          "name": "_token",
          "type": "address"
        }
      ],
      "stateMutability": "nonpayable",
      "type": "constructor"
    },
    {
      "anonymous": false,
      "inputs": [
        {
          "indexed": true,
          "internalType": "address",
          "name": "_address",
          "type": "address"
        },
        {
          "indexed": true,
          "internalType": "uint256",
          "name": "_value",
          "type": "uint256"
        }
      ],
      "name": "Claim",
      "type": "event"
    },
    {
      "inputs": [],
      "name": "claim",
      "outputs": [
        {
          "internalType": "bool",
          "name": "",
          "type": "bool"
        }
      ],
      "stateMutability": "nonpayable",
      "type": "function"
    },
    {
      "inputs": [
        {
          "internalType": "address",
          "name": "_address",
          "type": "address"
        }
      ],
      "name": "getLockingAddress",
      "outputs": [
        {
          "internalType": "uint256",
          "name": "amount",
          "type": "uint256"
        },
        {
          "internalType": "uint8",
          "name": "lastRoundClaim",
          "type": "uint8"
        },
        {
          "internalType": "uint256",
          "name": "claimed",
          "type": "uint256"
        }
      ],
      "stateMutability": "view",
      "type": "function"
    }
  ],
  "bytecode": "0x608060405260006002556000600355600060045560006005556000600760006101000a81548160ff021916908360ff1602179055506000600760016101000a81548160ff021916908360ff1602179055503480156200005d57600080fd5b5060405162002a8e38038062002a8e8339818101604052810190620000839190620004b0565b620000a362000097620003cd60201b60201c565b620003d560201b60201c565b80600160006101000a81548173ffffffffffffffffffffffffffffffffffffffff021916908373ffffffffffffffffffffffffffffffffffffffff16021790555065015d3ef798006003819055506361a07ee8600281905550600660009080600181540180825580915050600190039060005260206000200160009091909190915055600660025490806001815401808255809150506001900390600052602060002001600090919091909150556006615460600254620001659190620004dc565b9080600181540180825580915050600190039060005260206000200160009091909190915055600661a8c06002546200019f9190620004dc565b9080600181540180825580915050600190039060005260206000200160009091909190915055600661fd20600254620001d99190620004dc565b90806001815401808255809150506001900390600052602060002001600090919091909150556008600090806001815401808255809150506001900390600052602060002090602091828204019190069091909190916101000a81548160ff021916908360ff1602179055506008601990806001815401808255809150506001900390600052602060002090602091828204019190069091909190916101000a81548160ff021916908360ff1602179055506008603290806001815401808255809150506001900390600052602060002090602091828204019190069091909190916101000a81548160ff021916908360ff1602179055506008604b90806001815401808255809150506001900390600052602060002090602091828204019190069091909190916101000a81548160ff021916908360ff1602179055506008606490806001815401808255809150506001900390600052602060002090602091828204019190069091909190916101000a81548160ff021916908360ff160217905550600660018154811062000399577f4e487b7100000000000000000000000000000000000000000000000000000000600052603260045260246000fd5b90600052602060002001546005819055506004600760006101000a81548160ff021916908360ff16021790555050620005c0565b600033905090565b60008060009054906101000a900473ffffffffffffffffffffffffffffffffffffffff169050816000806101000a81548173ffffffffffffffffffffffffffffffffffffffff021916908373ffffffffffffffffffffffffffffffffffffffff1602179055508173ffffffffffffffffffffffffffffffffffffffff168173ffffffffffffffffffffffffffffffffffffffff167f8be0079c531659141344cd1fd0a4f28419497f9722a3daafe3b4186f6b6457e060405160405180910390a35050565b600081519050620004aa81620005a6565b92915050565b600060208284031215620004c357600080fd5b6000620004d38482850162000499565b91505092915050565b6000620004e9826200056d565b9150620004f6836200056d565b9250827fffffffffffffffffffffffffffffffffffffffffffffffffffffffffffffffff038211156200052e576200052d62000577565b5b828201905092915050565b600062000546826200054d565b9050919050565b600073ffffffffffffffffffffffffffffffffffffffff82169050919050565b6000819050919050565b7f4e487b7100000000000000000000000000000000000000000000000000000000600052601160045260246000fd5b620005b18162000539565b8114620005bd57600080fd5b50565b6124be80620005d06000396000f3fe608060405234801561001057600080fd5b50600436106100ea5760003560e01c80638867596f1161008c578063be9a655511610066578063be9a655514610205578063c67bbc241461020f578063f2fde38b1461022e578063fc0c546a1461024a576100ea565b80638867596f146101ab5780638da5cb5b146101c9578063ac239eea146101e7576100ea565b80634fe686d8116100c85780634fe686d8146101355780635ac87d76146101675780635da7801614610183578063715018a6146101a1576100ea565b80630d474ed3146100ef5780634311de8f1461010d5780634e71d92d14610117575b600080fd5b6100f7610268565b60405161010491906120f8565b60405180910390f35b61011561026e565b005b61011f610506565b60405161012c9190611f22565b60405180910390f35b61014f600480360381019061014a91906118ce565b610f9c565b60405161015e9392919061213c565b60405180910390f35b610181600480360381019061017c91906118f7565b611084565b005b61018b611331565b6040516101989190611ede565b60405180910390f35b6101a9611389565b005b6101b3611411565b6040516101c091906120f8565b60405180910390f35b6101d1611417565b6040516101de9190611e63565b60405180910390f35b6101ef611440565b6040516101fc9190611f00565b60405180910390f35b61020d6114be565b005b610217611694565b604051610225929190612113565b60405180910390f35b610248600480360381019061024391906118ce565b6116a5565b005b61025261179d565b60405161025f9190611f3d565b60405180910390f35b60055481565b6102766117c3565b73ffffffffffffffffffffffffffffffffffffffff16610294611417565b73ffffffffffffffffffffffffffffffffffffffff16146102ea576040517f08c379a00000000000000000000000000000000000000000000000000000000081526004016102e190612018565b60405180910390fd5b600960009054906101000a900460ff16610339576040517f08c379a000000000000000000000000000000000000000000000000000000000815260040161033090612098565b60405180910390fd5b60025442101561037e576040517f08c379a0000000000000000000000000000000000000000000000000000000008152600401610375906120d8565b60405180910390fd5b600354600454106103c4576040517f08c379a00000000000000000000000000000000000000000000000000000000081526004016103bb90611f78565b60405180910390fd5b600160009054906101000a900473ffffffffffffffffffffffffffffffffffffffff1673ffffffffffffffffffffffffffffffffffffffff1663a9059cbb61040a6117c3565b60045460035461041a919061230e565b6040518363ffffffff1660e01b8152600401610437929190611eb5565b602060405180830381600087803b15801561045157600080fd5b505af1158015610465573d6000803e3d6000fd5b505050506040513d601f19601f820116820180604052508101906104899190611933565b6104c8576040517f08c379a00000000000000000000000000000000000000000000000000000000081526004016104bf90612078565b60405180910390fd5b6004546003546104d8919061230e565b7fa20809e697380eaea0fd13bf4d14b00e2ef29559ef361501189d3be2e9b0ec8560405160405180910390a2565b6000600960009054906101000a900460ff16610557576040517f08c379a000000000000000000000000000000000000000000000000000000000815260040161054e90612098565b60405180910390fd5b6006600181548110610592577f4e487b7100000000000000000000000000000000000000000000000000000000600052603260045260246000fd5b90600052602060002001544210156105df576040517f08c379a00000000000000000000000000000000000000000000000000000000081526004016105d690612038565b60405180910390fd5b600760009054906101000a900460ff1660ff16600a60006105fe6117c3565b73ffffffffffffffffffffffffffffffffffffffff1673ffffffffffffffffffffffffffffffffffffffff16815260200190815260200160002060020160009054906101000a900460ff1660ff161061065657600080fd5b6000600a60006106646117c3565b73ffffffffffffffffffffffffffffffffffffffff1673ffffffffffffffffffffffffffffffffffffffff16815260200190815260200160002060000154116106e2576040517f08c379a00000000000000000000000000000000000000000000000000000000081526004016106d990611f98565b60405180910390fd5b5b60055442101580156107185750600760009054906101000a900460ff1660ff16600760019054906101000a900460ff1660ff16105b156107ef576007600181819054906101000a900460ff168092919061073c906123bb565b91906101000a81548160ff021916908360ff16021790555050600760009054906101000a900460ff1660ff16600760019054906101000a900460ff1660ff16146107ea5760066001600760019054906101000a900460ff1661079e919061224c565b60ff16815481106107d8577f4e487b7100000000000000000000000000000000000000000000000000000000600052603260045260246000fd5b90600052602060002001546005819055505b6106e3565b600760019054906101000a900460ff1660ff16600a600061080e6117c3565b73ffffffffffffffffffffffffffffffffffffffff1673ffffffffffffffffffffffffffffffffffffffff16815260200190815260200160002060020160009054906101000a900460ff1660ff161061086657600080fd5b600760009054906101000a900460ff1660ff16600760019054906101000a900460ff1660ff161415610c1957600160009054906101000a900473ffffffffffffffffffffffffffffffffffffffff1673ffffffffffffffffffffffffffffffffffffffff1663a9059cbb6108d86117c3565b600a60006108e46117c3565b73ffffffffffffffffffffffffffffffffffffffff1673ffffffffffffffffffffffffffffffffffffffff16815260200190815260200160002060010154600a600061092e6117c3565b73ffffffffffffffffffffffffffffffffffffffff1673ffffffffffffffffffffffffffffffffffffffff16815260200190815260200160002060000154610976919061230e565b6040518363ffffffff1660e01b8152600401610993929190611eb5565b602060405180830381600087803b1580156109ad57600080fd5b505af11580156109c1573d6000803e3d6000fd5b505050506040513d601f19601f820116820180604052508101906109e59190611933565b610a24576040517f08c379a0000000000000000000000000000000000000000000000000000000008152600401610a1b906120b8565b60405180910390fd5b600760009054906101000a900460ff16600a6000610a406117c3565b73ffffffffffffffffffffffffffffffffffffffff1673ffffffffffffffffffffffffffffffffffffffff16815260200190815260200160002060020160006101000a81548160ff021916908360ff160217905550600a6000610aa16117c3565b73ffffffffffffffffffffffffffffffffffffffff1673ffffffffffffffffffffffffffffffffffffffff16815260200190815260200160002060000154600a6000610aeb6117c3565b73ffffffffffffffffffffffffffffffffffffffff1673ffffffffffffffffffffffffffffffffffffffff16815260200190815260200160002060010181905550600a6000610b386117c3565b73ffffffffffffffffffffffffffffffffffffffff1673ffffffffffffffffffffffffffffffffffffffff16815260200190815260200160002060010154600a6000610b826117c3565b73ffffffffffffffffffffffffffffffffffffffff1673ffffffffffffffffffffffffffffffffffffffff16815260200190815260200160002060000154610bca919061230e565b610bd26117c3565b73ffffffffffffffffffffffffffffffffffffffff167f47cee97cb7acd717b3c0aa1435d004cd5b3c8c57d70dbceb4e4458bbd60e39d460405160405180910390a3610f95565b6000600a6000610c276117c3565b73ffffffffffffffffffffffffffffffffffffffff1673ffffffffffffffffffffffffffffffffffffffff1681526020019081526020016000206001015460646008600760019054906101000a900460ff1660ff1681548110610cb3577f4e487b7100000000000000000000000000000000000000000000000000000000600052603260045260246000fd5b90600052602060002090602091828204019190069054906101000a900460ff1660ff16600a6000610ce26117c3565b73ffffffffffffffffffffffffffffffffffffffff1673ffffffffffffffffffffffffffffffffffffffff16815260200190815260200160002060000154610d2a91906122b4565b610d349190612283565b610d3e919061230e565b9050600160009054906101000a900473ffffffffffffffffffffffffffffffffffffffff1673ffffffffffffffffffffffffffffffffffffffff1663a9059cbb610d866117c3565b836040518363ffffffff1660e01b8152600401610da4929190611eb5565b602060405180830381600087803b158015610dbe57600080fd5b505af1158015610dd2573d6000803e3d6000fd5b505050506040513d601f19601f82011682018060405250810190610df69190611933565b610e35576040517f08c379a0000000000000000000000000000000000000000000000000000000008152600401610e2c906120b8565b60405180910390fd5b80600a6000610e426117c3565b73ffffffffffffffffffffffffffffffffffffffff1673ffffffffffffffffffffffffffffffffffffffff16815260200190815260200160002060010154610e8a91906121f6565b600a6000610e966117c3565b73ffffffffffffffffffffffffffffffffffffffff1673ffffffffffffffffffffffffffffffffffffffff16815260200190815260200160002060010181905550600760019054906101000a900460ff16600a6000610ef36117c3565b73ffffffffffffffffffffffffffffffffffffffff1673ffffffffffffffffffffffffffffffffffffffff16815260200190815260200160002060020160006101000a81548160ff021916908360ff16021790555080610f516117c3565b73ffffffffffffffffffffffffffffffffffffffff167f47cee97cb7acd717b3c0aa1435d004cd5b3c8c57d70dbceb4e4458bbd60e39d460405160405180910390a3505b6001905090565b6000806000600a60008573ffffffffffffffffffffffffffffffffffffffff1673ffffffffffffffffffffffffffffffffffffffff16815260200190815260200160002060000154600a60008673ffffffffffffffffffffffffffffffffffffffff1673ffffffffffffffffffffffffffffffffffffffff16815260200190815260200160002060020160009054906101000a900460ff16600a60008773ffffffffffffffffffffffffffffffffffffffff1673ffffffffffffffffffffffffffffffffffffffff168152602001908152602001600020600101549250925092509193909250565b61108c6117c3565b73ffffffffffffffffffffffffffffffffffffffff166110aa611417565b73ffffffffffffffffffffffffffffffffffffffff1614611100576040517f08c379a00000000000000000000000000000000000000000000000000000000081526004016110f790612018565b60405180910390fd5b600960009054906101000a900460ff1661114f576040517f08c379a000000000000000000000000000000000000000000000000000000000815260040161114690612098565b60405180910390fd5b6002544210611193576040517f08c379a000000000000000000000000000000000000000000000000000000000815260040161118a90611f58565b60405180910390fd5b600354816004546111a491906121f6565b11156111e5576040517f08c379a00000000000000000000000000000000000000000000000000000000081526004016111dc90611ff8565b60405180910390fd5b80600a60008473ffffffffffffffffffffffffffffffffffffffff1673ffffffffffffffffffffffffffffffffffffffff168152602001908152602001600020600001819055506000600a60008473ffffffffffffffffffffffffffffffffffffffff1673ffffffffffffffffffffffffffffffffffffffff16815260200190815260200160002060020160006101000a81548160ff021916908360ff1602179055506000600a60008473ffffffffffffffffffffffffffffffffffffffff1673ffffffffffffffffffffffffffffffffffffffff1681526020019081526020016000206001018190555080600460008282546112e291906121f6565b92505081905550808273ffffffffffffffffffffffffffffffffffffffff167fa2ecb01f4871878e6749b2719b333c05451d3c7be68e332444873a9a0f1230d760405160405180910390a35050565b6060600680548060200260200160405190810160405280929190818152602001828054801561137f57602002820191906000526020600020905b81548152602001906001019080831161136b575b5050505050905090565b6113916117c3565b73ffffffffffffffffffffffffffffffffffffffff166113af611417565b73ffffffffffffffffffffffffffffffffffffffff1614611405576040517f08c379a00000000000000000000000000000000000000000000000000000000081526004016113fc90612018565b60405180910390fd5b61140f60006117cb565b565b60025481565b60008060009054906101000a900473ffffffffffffffffffffffffffffffffffffffff16905090565b606060088054806020026020016040519081016040528092919081815260200182805480156114b457602002820191906000526020600020906000905b82829054906101000a900460ff1660ff168152602001906001019060208260000104928301926001038202915080841161147d5790505b5050505050905090565b6114c66117c3565b73ffffffffffffffffffffffffffffffffffffffff166114e4611417565b73ffffffffffffffffffffffffffffffffffffffff161461153a576040517f08c379a000000000000000000000000000000000000000000000000000000000815260040161153190612018565b60405180910390fd5b600254421061157e576040517f08c379a000000000000000000000000000000000000000000000000000000000815260040161157590612058565b60405180910390fd5b600160009054906101000a900473ffffffffffffffffffffffffffffffffffffffff1673ffffffffffffffffffffffffffffffffffffffff166323b872dd6115c46117c3565b306003546040518463ffffffff1660e01b81526004016115e693929190611e7e565b602060405180830381600087803b15801561160057600080fd5b505af1158015611614573d6000803e3d6000fd5b505050506040513d601f19601f820116820180604052508101906116389190611933565b611677576040517f08c379a000000000000000000000000000000000000000000000000000000000815260040161166e90611fb8565b60405180910390fd5b6001600960006101000a81548160ff021916908315150217905550565b600080600354600454915091509091565b6116ad6117c3565b73ffffffffffffffffffffffffffffffffffffffff166116cb611417565b73ffffffffffffffffffffffffffffffffffffffff1614611721576040517f08c379a000000000000000000000000000000000000000000000000000000000815260040161171890612018565b60405180910390fd5b600073ffffffffffffffffffffffffffffffffffffffff168173ffffffffffffffffffffffffffffffffffffffff161415611791576040517f08c379a000000000000000000000000000000000000000000000000000000000815260040161178890611fd8565b60405180910390fd5b61179a816117cb565b50565b600160009054906101000a900473ffffffffffffffffffffffffffffffffffffffff1681565b600033905090565b60008060009054906101000a900473ffffffffffffffffffffffffffffffffffffffff169050816000806101000a81548173ffffffffffffffffffffffffffffffffffffffff021916908373ffffffffffffffffffffffffffffffffffffffff1602179055508173ffffffffffffffffffffffffffffffffffffffff168173ffffffffffffffffffffffffffffffffffffffff167f8be0079c531659141344cd1fd0a4f28419497f9722a3daafe3b4186f6b6457e060405160405180910390a35050565b60008135905061189e81612443565b92915050565b6000815190506118b38161245a565b92915050565b6000813590506118c881612471565b92915050565b6000602082840312156118e057600080fd5b60006118ee8482850161188f565b91505092915050565b6000806040838503121561190a57600080fd5b60006119188582860161188f565b9250506020611929858286016118b9565b9150509250929050565b60006020828403121561194557600080fd5b6000611953848285016118a4565b91505092915050565b60006119688383611e27565b60208301905092915050565b60006119808383611e45565b60208301905092915050565b61199581612342565b82525050565b60006119a682612193565b6119b081856121c3565b93506119bb83612173565b8060005b838110156119ec5781516119d3888261195c565b97506119de836121a9565b9250506001810190506119bf565b5085935050505092915050565b6000611a048261219e565b611a0e81856121d4565b9350611a1983612183565b8060005b83811015611a4a578151611a318882611974565b9750611a3c836121b6565b925050600181019050611a1d565b5085935050505092915050565b611a6081612354565b82525050565b611a6f81612397565b82525050565b6000611a826012836121e5565b91507f4e6f7420696e20616464696e672074696d6500000000000000000000000000006000830152602082019050919050565b6000611ac26013836121e5565b91507f4e6f7468696e6720746f207769746864726177000000000000000000000000006000830152602082019050919050565b6000611b026010836121e5565b91507f4e6f7468696e6720746f20636c61696d000000000000000000000000000000006000830152602082019050919050565b6000611b426027836121e5565b91507f5472616e736665722066726f6d2073656e64657220746f20636f6e747261637460008301527f206661696c6564000000000000000000000000000000000000000000000000006020830152604082019050919050565b6000611ba86026836121e5565b91507f4f776e61626c653a206e6577206f776e657220697320746865207a65726f206160008301527f64647265737300000000000000000000000000000000000000000000000000006020830152604082019050919050565b6000611c0e600d836121e5565b91507f4f7574206f6620766f6c756d65000000000000000000000000000000000000006000830152602082019050919050565b6000611c4e6020836121e5565b91507f4f776e61626c653a2063616c6c6572206973206e6f7420746865206f776e65726000830152602082019050919050565b6000611c8e6009836121e5565b91507f546f6f206561726c7900000000000000000000000000000000000000000000006000830152602082019050919050565b6000611cce6018836121e5565b91507f4d757374206265207374617274206265666f72652054474500000000000000006000830152602082019050919050565b6000611d0e6027836121e5565b91507f5472616e736665722066726f6d20636f6e747261637420746f2073656e64657260008301527f206661696c6564000000000000000000000000000000000000000000000000006020830152604082019050919050565b6000611d746019836121e5565b91507f4f776e6572206d757374206265207374617274206669727374000000000000006000830152602082019050919050565b6000611db4600f836121e5565b91507f5472616e73666572204661696c656400000000000000000000000000000000006000830152602082019050919050565b6000611df4601a836121e5565b91507f57697468647261772074696d65206973206166746572205447450000000000006000830152602082019050919050565b611e3081612380565b82525050565b611e3f81612380565b82525050565b611e4e8161238a565b82525050565b611e5d8161238a565b82525050565b6000602082019050611e78600083018461198c565b92915050565b6000606082019050611e93600083018661198c565b611ea0602083018561198c565b611ead6040830184611e36565b949350505050565b6000604082019050611eca600083018561198c565b611ed76020830184611e36565b9392505050565b60006020820190508181036000830152611ef8818461199b565b905092915050565b60006020820190508181036000830152611f1a81846119f9565b905092915050565b6000602082019050611f376000830184611a57565b92915050565b6000602082019050611f526000830184611a66565b92915050565b60006020820190508181036000830152611f7181611a75565b9050919050565b60006020820190508181036000830152611f9181611ab5565b9050919050565b60006020820190508181036000830152611fb181611af5565b9050919050565b60006020820190508181036000830152611fd181611b35565b9050919050565b60006020820190508181036000830152611ff181611b9b565b9050919050565b6000602082019050818103600083015261201181611c01565b9050919050565b6000602082019050818103600083015261203181611c41565b9050919050565b6000602082019050818103600083015261205181611c81565b9050919050565b6000602082019050818103600083015261207181611cc1565b9050919050565b6000602082019050818103600083015261209181611d01565b9050919050565b600060208201905081810360008301526120b181611d67565b9050919050565b600060208201905081810360008301526120d181611da7565b9050919050565b600060208201905081810360008301526120f181611de7565b9050919050565b600060208201905061210d6000830184611e36565b92915050565b60006040820190506121286000830185611e36565b6121356020830184611e36565b9392505050565b60006060820190506121516000830186611e36565b61215e6020830185611e54565b61216b6040830184611e36565b949350505050565b6000819050602082019050919050565b6000819050602082019050919050565b600081519050919050565b600081519050919050565b6000602082019050919050565b6000602082019050919050565b600082825260208201905092915050565b600082825260208201905092915050565b600082825260208201905092915050565b600061220182612380565b915061220c83612380565b9250827fffffffffffffffffffffffffffffffffffffffffffffffffffffffffffffffff03821115612241576122406123e5565b5b828201905092915050565b60006122578261238a565b91506122628361238a565b92508260ff03821115612278576122776123e5565b5b828201905092915050565b600061228e82612380565b915061229983612380565b9250826122a9576122a8612414565b5b828204905092915050565b60006122bf82612380565b91506122ca83612380565b9250817fffffffffffffffffffffffffffffffffffffffffffffffffffffffffffffffff0483118215151615612303576123026123e5565b5b828202905092915050565b600061231982612380565b915061232483612380565b925082821015612337576123366123e5565b5b828203905092915050565b600061234d82612360565b9050919050565b60008115159050919050565b600073ffffffffffffffffffffffffffffffffffffffff82169050919050565b6000819050919050565b600060ff82169050919050565b60006123a2826123a9565b9050919050565b60006123b482612360565b9050919050565b60006123c68261238a565b915060ff8214156123da576123d96123e5565b5b600182019050919050565b7f4e487b7100000000000000000000000000000000000000000000000000000000600052601160045260246000fd5b7f4e487b7100000000000000000000000000000000000000000000000000000000600052601260045260246000fd5b61244c81612342565b811461245757600080fd5b50565b61246381612354565b811461246e57600080fd5b50565b61247a81612380565b811461248557600080fd5b5056fea2646970667358221220d3b6d7f772dac6dd5b0f8c6258afbe0644f1593d2b9365b9d60759322034324364736f6c634300080000330000000000000000000000005a1d53e664a547c79ff908aa2535713773fc74f7",
  "source": "// SPDX-License-Identifier: MIT\npragma solidity >=0.4.25 <0.7.0;\n\nimport \"./ConvertLib.sol\";\n\n// This is just a simple example of a coin-like contract.\n// It is not standards compatible and cannot be expected to talk to other\n// coin/token contracts. If you want to create a standards-compliant\n// token, see: https://github.com/ConsenSys/Tokens. Cheers!\n\ncontract MetaCoin {\n    mapping(address => uint256) balances;\n\n    event Transfer(address indexed _from, address indexed _to, uint256 _value);\n\n    constructor() public {\n        balances[tx.origin] = 10000;\n    }\n\n    string public name = \"Test Coin Wow\";\n\n    function sendCoin(address receiver, uint256 amount)\n        public\n        returns (bool sufficient)\n    {\n        if (balances[msg.sender] < amount) return false;\n        balances[msg.sender] -= amount;\n        balances[receiver] += amount;\n        emit Transfer(msg.sender, receiver, amount);\n        return true;\n    }\n\n    function faucetCoin(address receiver, uint256 amount)\n        public\n        returns (bool sufficient)\n    {\n        balances[msg.sender] += amount;\n        emit Transfer(msg.sender, receiver, amount);\n        return true;\n    }\n\n    function getBalanceInEth(address addr) public view returns (uint256) {\n        return ConvertLib.convert(getBalance(addr), 2);\n    }\n\n    function getBalance(address addr) public view returns (uint256) {\n        return balances[addr];\n    }\n}\n",
  "sourcePath": "F:\\ethereum-boilerplate\\Truffle\\contracts\\MetaCoin.sol",
  "compiler": {
    "name": "solc",
    "version": "0.5.16+commit.9c3226ce.Emscripten.clang"
  },
  "schemaVersion": "3.4.3",
  "updatedAt": "2021-11-04T13:27:45.576Z",
  "networkType": "polygon",
  "devdoc": {
    "methods": {}
  },
  "userdoc": {
    "methods": {}
  }
}